{
  "transactions": [
    {
      "hash": "0xaeab6e59336b4786579e78ed90f694ce9a03cee9225c6c8afde170b566227972",
      "transactionType": "CREATE",
      "contractName": "MockERC20",
      "contractAddress": "0x2c5bedd15f3d40da729a68d852e4f436da14ef79",
      "function": null,
      "arguments": [
        "USD Coin",
        "USDC",
        "6"
      ],
      "transaction": {
        "from": "0xd9a1048f900e57c0c320ef11effaf725d1a9353f",
        "gas": "0xaa290",
        "value": "0x0",
        "input": "0x608060405234620003235762000af6803803806200001d8162000327565b9283398101606082820312620003235781516001600160401b03908181116200032357826200004e9185016200034d565b906020928385015182811162000323576040916200006e9187016200034d565b9401519360ff8516809503620003235782518281116200022e576003918254916001958684811c9416801562000318575b8885101462000304578190601f94858111620002b1575b5088908583116001146200024e575f9262000242575b50505f1982861b1c191690861b1783555b80519384116200022e5760049586548681811c9116801562000223575b828210146200021057838111620001c8575b50809285116001146200015e57509383949184925f9562000152575b50501b925f19911b1c19161790555b60ff1960055416176005556040516107389081620003be8239f35b015193505f8062000128565b92919084601f198116885f52855f20955f905b89838310620001ad575050501062000193575b50505050811b01905562000137565b01519060f8845f19921b161c191690555f80808062000184565b85870151895590970196948501948893509081019062000171565b875f52815f208480880160051c82019284891062000206575b0160051c019087905b828110620001fa5750506200010c565b5f8155018790620001ea565b92508192620001e1565b602288634e487b7160e01b5f525260245ffd5b90607f1690620000fa565b634e487b7160e01b5f52604160045260245ffd5b015190505f80620000cc565b90889350601f19831691875f528a5f20925f5b8c8282106200029a575050841162000282575b505050811b018355620000dd565b01515f1983881b60f8161c191690555f808062000274565b8385015186558c9790950194938401930162000261565b909150855f52885f208580850160051c8201928b8610620002fa575b918a91869594930160051c01915b828110620002eb575050620000b6565b5f81558594508a9101620002db565b92508192620002cd565b634e487b7160e01b5f52602260045260245ffd5b93607f16936200009f565b5f80fd5b6040519190601f01601f191682016001600160401b038111838210176200022e57604052565b919080601f84011215620003235782516001600160401b0381116200022e5760209062000383601f8201601f1916830162000327565b9281845282828701011162000323575f5b818110620003a95750825f9394955001015290565b85810183015184820184015282016200039456fe6080604090808252600480361015610015575f80fd5b5f3560e01c91826306fdde03146104dd57508163095ea7b31461043557816318160ddd1461041757816323b872dd14610325578163313ce5671461030457816340c10f191461025f57816370a082311461022957816395d89b411461010a57508063a9059cbb146100da5763dd62ed3e1461008e575f80fd5b346100d657806003193601126100d6576020906100a96105fc565b6100b1610612565b9060018060a01b038091165f5260018452825f2091165f528252805f20549051908152f35b5f80fd5b50346100d657806003193601126100d6576020906101036100f96105fc565b6024359033610628565b5160018152f35b82346100d6575f3660031901126100d6578051905f835460018160011c906001831692831561021f575b602093848410811461020c578388529081156101f0575060011461019c575b505050829003601f01601f191682019267ffffffffffffffff84118385101761018957508291826101859252826105b5565b0390f35b604190634e487b7160e01b5f525260245ffd5b5f878152929350837f8a35acfbc15ff81a39ae7d344fd709f28e8600b4aa8c65c6b64bfe7fe36bd19b5b8385106101dc5750505050830101848080610153565b8054888601830152930192849082016101c6565b60ff1916878501525050151560051b8401019050848080610153565b602289634e487b7160e01b5f525260245ffd5b91607f1691610134565b82346100d65760203660031901126100d6576020906001600160a01b0361024e6105fc565b165f525f8252805f20549051908152f35b82346100d657806003193601126100d6576102786105fc565b6001600160a01b031691602435919083156102ef57600254908382018092116102dc57505f927fddf252ad1be2c89b69c2b068fc378daa952ba7f163c4a11628f55a4df523b3ef9260209260025585855284835280852082815401905551908152a3005b601190634e487b7160e01b5f525260245ffd5b5f602492519163ec442f0560e01b8352820152fd5b82346100d6575f3660031901126100d65760209060ff600554169051908152f35b9050346100d65760603660031901126100d6576103406105fc565b610348610612565b906044359260018060a01b038216805f526001602052855f20335f52602052855f2054915f198310610383575b602087610103888888610628565b8583106103eb5781156103d55733156103bf57505f90815260016020908152868220338352815290869020918590039091558290610103610375565b6024905f885191634a1406b160e11b8352820152fd5b6024905f88519163e602df0560e01b8352820152fd5b8651637dc7a0d960e11b8152339181019182526020820193909352604081018690528291506060010390fd5b82346100d6575f3660031901126100d6576020906002549051908152f35b82346100d657806003193601126100d65761044e6105fc565b6024359033156104c7576001600160a01b03169081156104b15760209350335f5260018452825f20825f52845280835f205582519081527f8c5be1e5ebec7d5bd14f71427d1e84f3dd0314c0f7b2291e5b200ac8c7c3b925843392a35160018152f35b8251634a1406b160e11b81525f81860152602490fd5b825163e602df0560e01b81525f81860152602490fd5b83346100d6575f3660031901126100d6575f60035460018160011c90600183169283156105ab575b602093848410811461020c578388529081156101f0575060011461055557505050829003601f01601f191682019267ffffffffffffffff84118385101761018957508291826101859252826105b5565b60035f908152929350837fc2575a0e9e593c00f959f8c92f12db2869c3395a3b0502d05e2516446f71f85b5b8385106105975750505050830101848080610153565b805488860183015293019284908201610581565b91607f1691610505565b602080825282518183018190529093925f5b8281106105e857505060409293505f838284010152601f8019910116010190565b8181018601518482016040015285016105c7565b600435906001600160a01b03821682036100d657565b602435906001600160a01b03821682036100d657565b916001600160a01b038084169283156106ea57169283156106d257825f525f60205260405f2054908282106106a05750817fddf252ad1be2c89b69c2b068fc378daa952ba7f163c4a11628f55a4df523b3ef92602092855f525f84520360405f2055845f5260405f20818154019055604051908152a3565b60405163391434e360e21b81526001600160a01b03919091166004820152602481019190915260448101829052606490fd5b60405163ec442f0560e01b81525f6004820152602490fd5b604051634b637e8f60e11b81525f6004820152602490fdfea264697066735822122014d704d23f9b6644fde754ee43737c43389526f9e459deedd829b82954eb7c1164736f6c63430008180033000000000000000000000000000000000000000000000000000000000000006000000000000000000000000000000000000000000000000000000000000000a00000000000000000000000000000000000000000000000000000000000000006000000000000000000000000000000000000000000000000000000000000000855534420436f696e00000000000000000000000000000000000000000000000000000000000000000000000000000000000000000000000000000000000000045553444300000000000000000000000000000000000000000000000000000000",
        "nonce": "0x0",
        "chainId": "0x14a34"
      },
      "additionalContracts": [],
      "isFixedGasLimit": false
    },
    {
      "hash": "0x7e2b6997c731a67fb82cbd28b359257ef7e977307d186a305b76165db41dcdfd",
      "transactionType": "CREATE",
      "contractName": "MockERC20",
      "contractAddress": "0x83388045cab4cadc82acfa99a63b17e6d4e5cc87",
      "function": null,
      "arguments": [
        "Wrapped ETH",
        "WETH",
        "18"
      ],
      "transaction": {
        "from": "0xd9a1048f900e57c0c320ef11effaf725d1a9353f",
        "gas": "0xaa2bf",
        "value": "0x0",
        "input": "0x608060405234620003235762000af6803803806200001d8162000327565b9283398101606082820312620003235781516001600160401b03908181116200032357826200004e9185016200034d565b906020928385015182811162000323576040916200006e9187016200034d565b9401519360ff8516809503620003235782518281116200022e576003918254916001958684811c9416801562000318575b8885101462000304578190601f94858111620002b1575b5088908583116001146200024e575f9262000242575b50505f1982861b1c191690861b1783555b80519384116200022e5760049586548681811c9116801562000223575b828210146200021057838111620001c8575b50809285116001146200015e57509383949184925f9562000152575b50501b925f19911b1c19161790555b60ff1960055416176005556040516107389081620003be8239f35b015193505f8062000128565b92919084601f198116885f52855f20955f905b89838310620001ad575050501062000193575b50505050811b01905562000137565b01519060f8845f19921b161c191690555f80808062000184565b85870151895590970196948501948893509081019062000171565b875f52815f208480880160051c82019284891062000206575b0160051c019087905b828110620001fa5750506200010c565b5f8155018790620001ea565b92508192620001e1565b602288634e487b7160e01b5f525260245ffd5b90607f1690620000fa565b634e487b7160e01b5f52604160045260245ffd5b015190505f80620000cc565b90889350601f19831691875f528a5f20925f5b8c8282106200029a575050841162000282575b505050811b018355620000dd565b01515f1983881b60f8161c191690555f808062000274565b8385015186558c9790950194938401930162000261565b909150855f52885f208580850160051c8201928b8610620002fa575b918a91869594930160051c01915b828110620002eb575050620000b6565b5f81558594508a9101620002db565b92508192620002cd565b634e487b7160e01b5f52602260045260245ffd5b93607f16936200009f565b5f80fd5b6040519190601f01601f191682016001600160401b038111838210176200022e57604052565b919080601f84011215620003235782516001600160401b0381116200022e5760209062000383601f8201601f1916830162000327565b9281845282828701011162000323575f5b818110620003a95750825f9394955001015290565b85810183015184820184015282016200039456fe6080604090808252600480361015610015575f80fd5b5f3560e01c91826306fdde03146104dd57508163095ea7b31461043557816318160ddd1461041757816323b872dd14610325578163313ce5671461030457816340c10f191461025f57816370a082311461022957816395d89b411461010a57508063a9059cbb146100da5763dd62ed3e1461008e575f80fd5b346100d657806003193601126100d6576020906100a96105fc565b6100b1610612565b9060018060a01b038091165f5260018452825f2091165f528252805f20549051908152f35b5f80fd5b50346100d657806003193601126100d6576020906101036100f96105fc565b6024359033610628565b5160018152f35b82346100d6575f3660031901126100d6578051905f835460018160011c906001831692831561021f575b602093848410811461020c578388529081156101f0575060011461019c575b505050829003601f01601f191682019267ffffffffffffffff84118385101761018957508291826101859252826105b5565b0390f35b604190634e487b7160e01b5f525260245ffd5b5f878152929350837f8a35acfbc15ff81a39ae7d344fd709f28e8600b4aa8c65c6b64bfe7fe36bd19b5b8385106101dc5750505050830101848080610153565b8054888601830152930192849082016101c6565b60ff1916878501525050151560051b8401019050848080610153565b602289634e487b7160e01b5f525260245ffd5b91607f1691610134565b82346100d65760203660031901126100d6576020906001600160a01b0361024e6105fc565b165f525f8252805f20549051908152f35b82346100d657806003193601126100d6576102786105fc565b6001600160a01b031691602435919083156102ef57600254908382018092116102dc57505f927fddf252ad1be2c89b69c2b068fc378daa952ba7f163c4a11628f55a4df523b3ef9260209260025585855284835280852082815401905551908152a3005b601190634e487b7160e01b5f525260245ffd5b5f602492519163ec442f0560e01b8352820152fd5b82346100d6575f3660031901126100d65760209060ff600554169051908152f35b9050346100d65760603660031901126100d6576103406105fc565b610348610612565b906044359260018060a01b038216805f526001602052855f20335f52602052855f2054915f198310610383575b602087610103888888610628565b8583106103eb5781156103d55733156103bf57505f90815260016020908152868220338352815290869020918590039091558290610103610375565b6024905f885191634a1406b160e11b8352820152fd5b6024905f88519163e602df0560e01b8352820152fd5b8651637dc7a0d960e11b8152339181019182526020820193909352604081018690528291506060010390fd5b82346100d6575f3660031901126100d6576020906002549051908152f35b82346100d657806003193601126100d65761044e6105fc565b6024359033156104c7576001600160a01b03169081156104b15760209350335f5260018452825f20825f52845280835f205582519081527f8c5be1e5ebec7d5bd14f71427d1e84f3dd0314c0f7b2291e5b200ac8c7c3b925843392a35160018152f35b8251634a1406b160e11b81525f81860152602490fd5b825163e602df0560e01b81525f81860152602490fd5b83346100d6575f3660031901126100d6575f60035460018160011c90600183169283156105ab575b602093848410811461020c578388529081156101f0575060011461055557505050829003601f01601f191682019267ffffffffffffffff84118385101761018957508291826101859252826105b5565b60035f908152929350837fc2575a0e9e593c00f959f8c92f12db2869c3395a3b0502d05e2516446f71f85b5b8385106105975750505050830101848080610153565b805488860183015293019284908201610581565b91607f1691610505565b602080825282518183018190529093925f5b8281106105e857505060409293505f838284010152601f8019910116010190565b8181018601518482016040015285016105c7565b600435906001600160a01b03821682036100d657565b602435906001600160a01b03821682036100d657565b916001600160a01b038084169283156106ea57169283156106d257825f525f60205260405f2054908282106106a05750817fddf252ad1be2c89b69c2b068fc378daa952ba7f163c4a11628f55a4df523b3ef92602092855f525f84520360405f2055845f5260405f20818154019055604051908152a3565b60405163391434e360e21b81526001600160a01b03919091166004820152602481019190915260448101829052606490fd5b60405163ec442f0560e01b81525f6004820152602490fd5b604051634b637e8f60e11b81525f6004820152602490fdfea264697066735822122014d704d23f9b6644fde754ee43737c43389526f9e459deedd829b82954eb7c1164736f6c63430008180033000000000000000000000000000000000000000000000000000000000000006000000000000000000000000000000000000000000000000000000000000000a00000000000000000000000000000000000000000000000000000000000000012000000000000000000000000000000000000000000000000000000000000000b577261707065642045544800000000000000000000000000000000000000000000000000000000000000000000000000000000000000000000000000000000045745544800000000000000000000000000000000000000000000000000000000",
        "nonce": "0x1",
        "chainId": "0x14a34"
      },
      "additionalContracts": [],
      "isFixedGasLimit": false
    },
    {
      "hash": "0xf6bd872d1c3ad67070d334c2c0af8bbb17f09d40a49012bf4c45650a0fb3b1db",
      "transactionType": "CREATE",
      "contractName": "MockERC20",
      "contractAddress": "0xb4a47f5d656c177be6cf4839551217f44cbb2cb5",
      "function": null,
      "arguments": [
        "Wrapped BTC",
        "WBTC",
        "8"
      ],
      "transaction": {
        "from": "0xd9a1048f900e57c0c320ef11effaf725d1a9353f",
        "gas": "0xaa2bf",
        "value": "0x0",
        "input": "0x608060405234620003235762000af6803803806200001d8162000327565b9283398101606082820312620003235781516001600160401b03908181116200032357826200004e9185016200034d565b906020928385015182811162000323576040916200006e9187016200034d565b9401519360ff8516809503620003235782518281116200022e576003918254916001958684811c9416801562000318575b8885101462000304578190601f94858111620002b1575b5088908583116001146200024e575f9262000242575b50505f1982861b1c191690861b1783555b80519384116200022e5760049586548681811c9116801562000223575b828210146200021057838111620001c8575b50809285116001146200015e57509383949184925f9562000152575b50501b925f19911b1c19161790555b60ff1960055416176005556040516107389081620003be8239f35b015193505f8062000128565b92919084601f198116885f52855f20955f905b89838310620001ad575050501062000193575b50505050811b01905562000137565b01519060f8845f19921b161c191690555f80808062000184565b85870151895590970196948501948893509081019062000171565b875f52815f208480880160051c82019284891062000206575b0160051c019087905b828110620001fa5750506200010c565b5f8155018790620001ea565b92508192620001e1565b602288634e487b7160e01b5f525260245ffd5b90607f1690620000fa565b634e487b7160e01b5f52604160045260245ffd5b015190505f80620000cc565b90889350601f19831691875f528a5f20925f5b8c8282106200029a575050841162000282575b505050811b018355620000dd565b01515f1983881b60f8161c191690555f808062000274565b8385015186558c9790950194938401930162000261565b909150855f52885f208580850160051c8201928b8610620002fa575b918a91869594930160051c01915b828110620002eb575050620000b6565b5f81558594508a9101620002db565b92508192620002cd565b634e487b7160e01b5f52602260045260245ffd5b93607f16936200009f565b5f80fd5b6040519190601f01601f191682016001600160401b038111838210176200022e57604052565b919080601f84011215620003235782516001600160401b0381116200022e5760209062000383601f8201601f1916830162000327565b9281845282828701011162000323575f5b818110620003a95750825f9394955001015290565b85810183015184820184015282016200039456fe6080604090808252600480361015610015575f80fd5b5f3560e01c91826306fdde03146104dd57508163095ea7b31461043557816318160ddd1461041757816323b872dd14610325578163313ce5671461030457816340c10f191461025f57816370a082311461022957816395d89b411461010a57508063a9059cbb146100da5763dd62ed3e1461008e575f80fd5b346100d657806003193601126100d6576020906100a96105fc565b6100b1610612565b9060018060a01b038091165f5260018452825f2091165f528252805f20549051908152f35b5f80fd5b50346100d657806003193601126100d6576020906101036100f96105fc565b6024359033610628565b5160018152f35b82346100d6575f3660031901126100d6578051905f835460018160011c906001831692831561021f575b602093848410811461020c578388529081156101f0575060011461019c575b505050829003601f01601f191682019267ffffffffffffffff84118385101761018957508291826101859252826105b5565b0390f35b604190634e487b7160e01b5f525260245ffd5b5f878152929350837f8a35acfbc15ff81a39ae7d344fd709f28e8600b4aa8c65c6b64bfe7fe36bd19b5b8385106101dc5750505050830101848080610153565b8054888601830152930192849082016101c6565b60ff1916878501525050151560051b8401019050848080610153565b602289634e487b7160e01b5f525260245ffd5b91607f1691610134565b82346100d65760203660031901126100d6576020906001600160a01b0361024e6105fc565b165f525f8252805f20549051908152f35b82346100d657806003193601126100d6576102786105fc565b6001600160a01b031691602435919083156102ef57600254908382018092116102dc57505f927fddf252ad1be2c89b69c2b068fc378daa952ba7f163c4a11628f55a4df523b3ef9260209260025585855284835280852082815401905551908152a3005b601190634e487b7160e01b5f525260245ffd5b5f602492519163ec442f0560e01b8352820152fd5b82346100d6575f3660031901126100d65760209060ff600554169051908152f35b9050346100d65760603660031901126100d6576103406105fc565b610348610612565b906044359260018060a01b038216805f526001602052855f20335f52602052855f2054915f198310610383575b602087610103888888610628565b8583106103eb5781156103d55733156103bf57505f90815260016020908152868220338352815290869020918590039091558290610103610375565b6024905f885191634a1406b160e11b8352820152fd5b6024905f88519163e602df0560e01b8352820152fd5b8651637dc7a0d960e11b8152339181019182526020820193909352604081018690528291506060010390fd5b82346100d6575f3660031901126100d6576020906002549051908152f35b82346100d657806003193601126100d65761044e6105fc565b6024359033156104c7576001600160a01b03169081156104b15760209350335f5260018452825f20825f52845280835f205582519081527f8c5be1e5ebec7d5bd14f71427d1e84f3dd0314c0f7b2291e5b200ac8c7c3b925843392a35160018152f35b8251634a1406b160e11b81525f81860152602490fd5b825163e602df0560e01b81525f81860152602490fd5b83346100d6575f3660031901126100d6575f60035460018160011c90600183169283156105ab575b602093848410811461020c578388529081156101f0575060011461055557505050829003601f01601f191682019267ffffffffffffffff84118385101761018957508291826101859252826105b5565b60035f908152929350837fc2575a0e9e593c00f959f8c92f12db2869c3395a3b0502d05e2516446f71f85b5b8385106105975750505050830101848080610153565b805488860183015293019284908201610581565b91607f1691610505565b602080825282518183018190529093925f5b8281106105e857505060409293505f838284010152601f8019910116010190565b8181018601518482016040015285016105c7565b600435906001600160a01b03821682036100d657565b602435906001600160a01b03821682036100d657565b916001600160a01b038084169283156106ea57169283156106d257825f525f60205260405f2054908282106106a05750817fddf252ad1be2c89b69c2b068fc378daa952ba7f163c4a11628f55a4df523b3ef92602092855f525f84520360405f2055845f5260405f20818154019055604051908152a3565b60405163391434e360e21b81526001600160a01b03919091166004820152602481019190915260448101829052606490fd5b60405163ec442f0560e01b81525f6004820152602490fd5b604051634b637e8f60e11b81525f6004820152602490fdfea264697066735822122014d704d23f9b6644fde754ee43737c43389526f9e459deedd829b82954eb7c1164736f6c63430008180033000000000000000000000000000000000000000000000000000000000000006000000000000000000000000000000000000000000000000000000000000000a00000000000000000000000000000000000000000000000000000000000000008000000000000000000000000000000000000000000000000000000000000000b577261707065642042544300000000000000000000000000000000000000000000000000000000000000000000000000000000000000000000000000000000045742544300000000000000000000000000000000000000000000000000000000",
        "nonce": "0x2",
        "chainId": "0x14a34"
      },
      "additionalContracts": [],
      "isFixedGasLimit": false
    },
    {
      "hash": "0x4e654b5ee9eee4460c42a0389ce967adbd9f89fac1c4ef8d0fa5acea3d22a174",
      "transactionType": "CREATE",
      "contractName": "MockERC20",
      "contractAddress": "0xcc86944f5e7385ca6df8eec5d40957840cfdfbb2",
      "function": null,
      "arguments": [
        "Chainlink",
        "LINK",
        "18"
      ],
      "transaction": {
        "from": "0xd9a1048f900e57c0c320ef11effaf725d1a9353f",
        "gas": "0xaa2a0",
        "value": "0x0",
        "input": "0x608060405234620003235762000af6803803806200001d8162000327565b9283398101606082820312620003235781516001600160401b03908181116200032357826200004e9185016200034d565b906020928385015182811162000323576040916200006e9187016200034d565b9401519360ff8516809503620003235782518281116200022e576003918254916001958684811c9416801562000318575b8885101462000304578190601f94858111620002b1575b5088908583116001146200024e575f9262000242575b50505f1982861b1c191690861b1783555b80519384116200022e5760049586548681811c9116801562000223575b828210146200021057838111620001c8575b50809285116001146200015e57509383949184925f9562000152575b50501b925f19911b1c19161790555b60ff1960055416176005556040516107389081620003be8239f35b015193505f8062000128565b92919084601f198116885f52855f20955f905b89838310620001ad575050501062000193575b50505050811b01905562000137565b01519060f8845f19921b161c191690555f80808062000184565b85870151895590970196948501948893509081019062000171565b875f52815f208480880160051c82019284891062000206575b0160051c019087905b828110620001fa5750506200010c565b5f8155018790620001ea565b92508192620001e1565b602288634e487b7160e01b5f525260245ffd5b90607f1690620000fa565b634e487b7160e01b5f52604160045260245ffd5b015190505f80620000cc565b90889350601f19831691875f528a5f20925f5b8c8282106200029a575050841162000282575b505050811b018355620000dd565b01515f1983881b60f8161c191690555f808062000274565b8385015186558c9790950194938401930162000261565b909150855f52885f208580850160051c8201928b8610620002fa575b918a91869594930160051c01915b828110620002eb575050620000b6565b5f81558594508a9101620002db565b92508192620002cd565b634e487b7160e01b5f52602260045260245ffd5b93607f16936200009f565b5f80fd5b6040519190601f01601f191682016001600160401b038111838210176200022e57604052565b919080601f84011215620003235782516001600160401b0381116200022e5760209062000383601f8201601f1916830162000327565b9281845282828701011162000323575f5b818110620003a95750825f9394955001015290565b85810183015184820184015282016200039456fe6080604090808252600480361015610015575f80fd5b5f3560e01c91826306fdde03146104dd57508163095ea7b31461043557816318160ddd1461041757816323b872dd14610325578163313ce5671461030457816340c10f191461025f57816370a082311461022957816395d89b411461010a57508063a9059cbb146100da5763dd62ed3e1461008e575f80fd5b346100d657806003193601126100d6576020906100a96105fc565b6100b1610612565b9060018060a01b038091165f5260018452825f2091165f528252805f20549051908152f35b5f80fd5b50346100d657806003193601126100d6576020906101036100f96105fc565b6024359033610628565b5160018152f35b82346100d6575f3660031901126100d6578051905f835460018160011c906001831692831561021f575b602093848410811461020c578388529081156101f0575060011461019c575b505050829003601f01601f191682019267ffffffffffffffff84118385101761018957508291826101859252826105b5565b0390f35b604190634e487b7160e01b5f525260245ffd5b5f878152929350837f8a35acfbc15ff81a39ae7d344fd709f28e8600b4aa8c65c6b64bfe7fe36bd19b5b8385106101dc5750505050830101848080610153565b8054888601830152930192849082016101c6565b60ff1916878501525050151560051b8401019050848080610153565b602289634e487b7160e01b5f525260245ffd5b91607f1691610134565b82346100d65760203660031901126100d6576020906001600160a01b0361024e6105fc565b165f525f8252805f20549051908152f35b82346100d657806003193601126100d6576102786105fc565b6001600160a01b031691602435919083156102ef57600254908382018092116102dc57505f927fddf252ad1be2c89b69c2b068fc378daa952ba7f163c4a11628f55a4df523b3ef9260209260025585855284835280852082815401905551908152a3005b601190634e487b7160e01b5f525260245ffd5b5f602492519163ec442f0560e01b8352820152fd5b82346100d6575f3660031901126100d65760209060ff600554169051908152f35b9050346100d65760603660031901126100d6576103406105fc565b610348610612565b906044359260018060a01b038216805f526001602052855f20335f52602052855f2054915f198310610383575b602087610103888888610628565b8583106103eb5781156103d55733156103bf57505f90815260016020908152868220338352815290869020918590039091558290610103610375565b6024905f885191634a1406b160e11b8352820152fd5b6024905f88519163e602df0560e01b8352820152fd5b8651637dc7a0d960e11b8152339181019182526020820193909352604081018690528291506060010390fd5b82346100d6575f3660031901126100d6576020906002549051908152f35b82346100d657806003193601126100d65761044e6105fc565b6024359033156104c7576001600160a01b03169081156104b15760209350335f5260018452825f20825f52845280835f205582519081527f8c5be1e5ebec7d5bd14f71427d1e84f3dd0314c0f7b2291e5b200ac8c7c3b925843392a35160018152f35b8251634a1406b160e11b81525f81860152602490fd5b825163e602df0560e01b81525f81860152602490fd5b83346100d6575f3660031901126100d6575f60035460018160011c90600183169283156105ab575b602093848410811461020c578388529081156101f0575060011461055557505050829003601f01601f191682019267ffffffffffffffff84118385101761018957508291826101859252826105b5565b60035f908152929350837fc2575a0e9e593c00f959f8c92f12db2869c3395a3b0502d05e2516446f71f85b5b8385106105975750505050830101848080610153565b805488860183015293019284908201610581565b91607f1691610505565b602080825282518183018190529093925f5b8281106105e857505060409293505f838284010152601f8019910116010190565b8181018601518482016040015285016105c7565b600435906001600160a01b03821682036100d657565b602435906001600160a01b03821682036100d657565b916001600160a01b038084169283156106ea57169283156106d257825f525f60205260405f2054908282106106a05750817fddf252ad1be2c89b69c2b068fc378daa952ba7f163c4a11628f55a4df523b3ef92602092855f525f84520360405f2055845f5260405f20818154019055604051908152a3565b60405163391434e360e21b81526001600160a01b03919091166004820152602481019190915260448101829052606490fd5b60405163ec442f0560e01b81525f6004820152602490fd5b604051634b637e8f60e11b81525f6004820152602490fdfea264697066735822122014d704d23f9b6644fde754ee43737c43389526f9e459deedd829b82954eb7c1164736f6c63430008180033000000000000000000000000000000000000000000000000000000000000006000000000000000000000000000000000000000000000000000000000000000a000000000000000000000000000000000000000000000000000000000000000120000000000000000000000000000000000000000000000000000000000000009436861696e6c696e6b000000000000000000000000000000000000000000000000000000000000000000000000000000000000000000000000000000000000044c494e4b00000000000000000000000000000000000000000000000000000000",
        "nonce": "0x3",
        "chainId": "0x14a34"
      },
      "additionalContracts": [],
      "isFixedGasLimit": false
    },
    {
      "hash": "0x663c5ec724224e3c915f459d43cbe6fd77870f68c63d50efeaf86be20c84bf2d",
      "transactionType": "CREATE",
      "contractName": "MockPriceFeed",
      "contractAddress": "0x55bd48c34441feda5c0d45a2400976fb933abb7e",
      "function": null,
      "arguments": [
        "200000000000"
      ],
      "transaction": {
        "from": "0xd9a1048f900e57c0c320ef11effaf725d1a9353f",
        "gas": "0x2e5fc",
        "value": "0x0",
        "input": "0x60803461005c57601f61014d38819003918201601f19168301916001600160401b038311848410176100605780849260209460405283398101031261005c5751600860ff1960015416176001555f5560405160d890816100758239f35b5f80fd5b634e487b7160e01b5f52604160045260245ffdfe60808060405260043610156011575f80fd5b5f3560e01c908163313ce56714608757508063f7a308061460715763feaf968c146039575f80fd5b34606d575f366003190112606d5760a05f546040519060018252602082015242604082015242606082015260016080820152f35b5f80fd5b34606d576020366003190112606d576004355f55005b34606d575f366003190112606d5760209060ff600154168152f3fea26469706673582212209d3c75eba9010e5af163f24034a1e498b1c292cc931f6de6f4948058a959791864736f6c634300081800330000000000000000000000000000000000000000000000000000002e90edd000",
        "nonce": "0x4",
        "chainId": "0x14a34"
      },
      "additionalContracts": [],
      "isFixedGasLimit": false
    },
    {
      "hash": "0xe9348be24a26a6c8af71b1d8b0a57a9baa98d9cba317c4896d45865d3e9e398f",
      "transactionType": "CREATE",
      "contractName": "MockPriceFeed",
      "contractAddress": "0xd916970fe36541a0a71db13415cffbff005e761e",
      "function": null,
      "arguments": [
        "5000000000000"
      ],
      "transaction": {
        "from": "0xd9a1048f900e57c0c320ef11effaf725d1a9353f",
        "gas": "0x2e60b",
        "value": "0x0",
        "input": "0x60803461005c57601f61014d38819003918201601f19168301916001600160401b038311848410176100605780849260209460405283398101031261005c5751600860ff1960015416176001555f5560405160d890816100758239f35b5f80fd5b634e487b7160e01b5f52604160045260245ffdfe60808060405260043610156011575f80fd5b5f3560e01c908163313ce56714608757508063f7a308061460715763feaf968c146039575f80fd5b34606d575f366003190112606d5760a05f546040519060018252602082015242604082015242606082015260016080820152f35b5f80fd5b34606d576020366003190112606d576004355f55005b34606d575f366003190112606d5760209060ff600154168152f3fea26469706673582212209d3c75eba9010e5af163f24034a1e498b1c292cc931f6de6f4948058a959791864736f6c634300081800330000000000000000000000000000000000000000000000000000048c27395000",
        "nonce": "0x5",
        "chainId": "0x14a34"
      },
      "additionalContracts": [],
      "isFixedGasLimit": false
    },
    {
      "hash": "0x46e94a9b3acc66a825282d356a0b9f2dd25ebc081ee5ebac48f52b31d0be2ab6",
      "transactionType": "CREATE",
      "contractName": "MockPriceFeed",
      "contractAddress": "0xdc74e032653b3a593ed6b8d2bea2acd16965c28b",
      "function": null,
      "arguments": [
        "1500000000"
      ],
      "transaction": {
        "from": "0xd9a1048f900e57c0c320ef11effaf725d1a9353f",
        "gas": "0x2e5ec",
        "value": "0x0",
        "input": "0x60803461005c57601f61014d38819003918201601f19168301916001600160401b038311848410176100605780849260209460405283398101031261005c5751600860ff1960015416176001555f5560405160d890816100758239f35b5f80fd5b634e487b7160e01b5f52604160045260245ffdfe60808060405260043610156011575f80fd5b5f3560e01c908163313ce56714608757508063f7a308061460715763feaf968c146039575f80fd5b34606d575f366003190112606d5760a05f546040519060018252602082015242604082015242606082015260016080820152f35b5f80fd5b34606d576020366003190112606d576004355f55005b34606d575f366003190112606d5760209060ff600154168152f3fea26469706673582212209d3c75eba9010e5af163f24034a1e498b1c292cc931f6de6f4948058a959791864736f6c634300081800330000000000000000000000000000000000000000000000000000000059682f00",
        "nonce": "0x6",
        "chainId": "0x14a34"
      },
      "additionalContracts": [],
      "isFixedGasLimit": false
    },
    {
      "hash": "0x20c93418614d75649769f3e6c05e3a95d32b688529b2395f5aa2545eccf7821c",
      "transactionType": "CREATE",
      "contractName": "ElasticCollateralManager",
      "contractAddress": "0x15880a9e1719aad5a37c99203c51c2e445651c94",
      "function": null,
      "arguments": [
        "0xD9a1048f900E57C0C320eF11eFfAF725d1a9353f"
      ],
      "transaction": {
        "from": "0xd9a1048f900e57c0c320ef11effaf725d1a9353f",
        "gas": "0x24a6b5",
        "value": "0x0",
        "input": "0x6080346200008e57601f6200211338819003918201601f19168301916001600160401b0383118484101762000092578084926020946040528339810103126200008e57516001600160a01b03811681036200008e576200007d90610e106008556200006a81620000a6565b50620000768162000116565b50620001b6565b50604051611e829081620002518239f35b5f80fd5b634e487b7160e01b5f52604160045260245ffd5b6001600160a01b03165f8181525f80516020620020f3833981519152602052604090205460ff1662000111575f8181525f80516020620020f383398151915260205260408120805460ff191660011790553391905f80516020620020d38339815191528180a4600190565b505f90565b6001600160a01b03165f8181527fe84508f2c7fa9c351146748b3025cb78b45df37d868e48c6a75102fecdeee64560205260409020547f241ecf16d79d0f8dbfb92cbc07fe17840425976cf0667f022fe9877caa831b08919060ff16620001b057815f525f60205260405f20815f5260205260405f20600160ff1982541617905533915f80516020620020d38339815191525f80a4600190565b50505f90565b6001600160a01b03165f8181527fa629f6981c2f6895a67dc766e8e03ff72d04a413d0d8773a3ca56e9e474032c160205260409020547f68e79a7bf1e0bc45d0a330c573bc367f9cf464fd326078812f301165fbda4ef1919060ff16620001b057815f525f60205260405f20815f5260205260405f20600160ff1982541617905533915f80516020620020d38339815191525f80a460019056fe6080604090808252600480361015610015575f80fd5b5f3560e01c91826301ffc9a714610f9557508163022151d414610f7a57816307e2cea514610f40578163113aa8b114610efd5781631a8e8f8b146107385781631b69dc5f14610e7f578163248a9ca314610e565781632f2ff15d14610e2e57816336568abe14610dea57816336ba193314610dc557816338ed11a514610c2a5781633b22e70914610b005781633c77978914610ad85781633dbcceb214610aba5781633eafdd63146109fa57816342bdf0441461089757816344bf3c721461086f5781634d298abd1461082c578163593794b01461078157816372e33d78146107385781637a2a30521461070157816391d14854146106be5781639c082e7514610696578163a217fddf1461067c578163a4b0cbee14610657578163a59a99731461062f578163a69348bd146105fd578163ae73ae341461055f578163b08287cd14610503578163b1fdc50b14610446578163d3c7c2c71461038d578163d547741f14610352578163ec87621c14610318578163eca66b17146102f3578163f589df171461022f578163f6c8e9f414610210575063f91bff57146101b7575f80fd5b3461020c57602036600319011261020c576020906102056101de6101d9610fe7565b6116f7565b60606101fc6101f283518785015190611072565b8584015190611072565b91015190611072565b9051908152f35b5f80fd5b3461020c57602036600319011261020c57610229611575565b35600855005b823461020c578060031936011261020c5760e09060c061024d610fe7565b915f82825161025b8161112f565b82815282602082015282848201528260608201528260808201528260a0820152015260018060a01b038093165f5260056020526102a561029f602435835f20611034565b506114ba565b9080519382518552602083015116602085015280820151908401526102d260608201516060850190611013565b61ffff608082015116608084015260a081015160a0840152015160c0820152f35b823461020c57602036600319011261020c57602090610205610313610fe7565b61144b565b823461020c575f36600319011261020c57602090517f241ecf16d79d0f8dbfb92cbc07fe17840425976cf0667f022fe9877caa831b088152f35b823461020c578060031936011261020c5761038b91356103866001610375610ffd565b93835f525f6020525f2001546115ee565b611685565b005b823461020c575f36600319011261020c5780519081600354908181526020809101809260035f527fc2575a0e9e593c00f959f8c92f12db2869c3395a3b0502d05e2516446f71f85b905f5b81811061043257505050846103ee910385611167565b825181815293518185018190528493840192915f5b82811061041257505050500390f35b83516001600160a01b031685528695509381019392810192600101610403565b8254845292840192600192830192016103d8565b90503461020c5760e036600319011261020c57610461610fe7565b60443591906001600160a01b038316830361020c57608435908282101561020c5760a4359261ffff8416840361020c577f68e79a7bf1e0bc45d0a330c573bc367f9cf464fd326078812f301165fbda4ef1805f525f602052865f20335f5260205260ff875f205416156104e657505061038b945060c435936064359160243590611244565b6044925086519163e2517d3f60e01b835233908301526024820152fd5b90503461020c5760208060031936011261020c57610537610522610fe7565b6080855161052f8161114b565b3690376116f7565b9251925f90845b84831061054a57608086f35b8380600192845181520192019201919061053e565b823461020c578060031936011261020c57610578610fe7565b906024359260018060a01b038093165f526005602052815f2093845481101561020c576105aa61ffff9160e096611034565b509182549460018401541693600284015490600560038601549386015495015495815197885260208801528601526105e86060860160ff8316611013565b60081c16608084015260a083015260c0820152f35b823461020c57602036600319011261020c5781359182101561020c5761ffff6106276020936111dc565b915191168152f35b823461020c575f36600319011261020c5760075490516001600160a01b039091168152602090f35b823461020c57602036600319011261020c57602090610205610677610fe7565b6111ad565b823461020c575f36600319011261020c57602090515f8152f35b823461020c57602036600319011261020c576020906102056106b96101d9610fe7565b6118e2565b823461020c578060031936011261020c576020916106da610ffd565b90355f525f8352815f209060018060a01b03165f52825260ff815f20541690519015158152f35b823461020c57602036600319011261020c576020906001600160a01b03610726610fe7565b165f5260058252805f20549051908152f35b823461020c578060031936011261020c57602090610754610fe7565b61075c610ffd565b9060018060a01b038091165f5260018452825f2091165f528252805f20549051908152f35b90503461020c57606036600319011261020c5761079c610fe7565b60065460443593916001600160a01b03918216330361081d57165f9081526005602052206107cd9060243590611034565b5090810180549092908082106107ea5750505f9182905560020155005b6108199261081260026107fd8486611a30565b92019161080c83549182611ad1565b90611093565b9055611093565b9055005b50505163dfff4acd60e01b8152fd5b3461020c57602036600319011261020c57610845610fe7565b61084d61151f565b600680546001600160a01b0319166001600160a01b0392909216919091179055005b823461020c575f36600319011261020c5760065490516001600160a01b039091168152602090f35b823461020c578060031936011261020c576108b0610fe7565b916024359182156109ed57335f5260209160018352815f209460018060a01b0380911695865f528452825f20548581106109d15750335f5260018452825f20865f528452825f20610902868254611093565b90556007541680610947575b5050907fa1382cc5180efdf0e44d92c6b52f3f8f540fd15b7099d1bd59ca4790195a04f29161093e843387611994565b519283523392a3005b83602491845192838092624c441360e41b825233878301525afa80156109c7575f90610992575b67120a871cc0020000915010610984578061090e565b90516317d4e30960e21b8152fd5b508381813d83116109c0575b6109a88183611167565b8101031261020c5767120a871cc0020000905161096e565b503d61099e565b83513d5f823e3d90fd5b859150604493519263cf47918160e01b84528301526024820152fd5b51631f2a200560e01b8152fd5b823461020c57608036600319011261020c57610a14610fe7565b91610a1d610ffd565b6001600160a01b039360443593606435939091868516850361020c5786600654163303610aab57861695865f526001602052825f20931692835f52602052815f2054858110610a9057505061038b945f526001602052805f20825f526020525f20610a89848254611093565b9055611994565b8590604493519263cf47918160e01b84528301526024820152fd5b50905163dfff4acd60e01b8152fd5b823461020c575f36600319011261020c576020906008549051908152f35b823461020c57602036600319011261020c57602090610205610afb6101d9610fe7565b611959565b823461020c578060031936011261020c57610b19610fe7565b90602435918215610c1a576001600160a01b03165f81815260026020528290205490939060d01c60ff1615610c05578151906323b872dd60e01b5f52338152306024528360445260205f60648180895af160015f5114811615610be6575b8284525f60605215610bd2575050335f526001602052805f20835f52602052805f20610ba4838254611072565b9055519081527f1f32cc9da7a81bd0c5391a2c14881b0fe09c659bfdd890613f65e1aaf2f82c7160203392a3005b635274afe760e01b82528101849052602490fd5b6001811516610bfc57853b15153d151616610b77565b823d5f823e3d90fd5b8360249251916306439c6b60e01b8352820152fd5b8151631f2a200560e01b81528490fd5b90503461020c5760c036600319011261020c57610c45610fe7565b916024358281101561020c5760443561ffff9485821680920361020c576064359086821680920361020c576001600160a01b039160843583811692919083900361020c5760a4359060ff821680920361020c57610ca0611575565b875194610cac866110ff565b610cb68887611189565b6020860190878252898701928352606087019586526080870193845260a08701946001865216998a5f526002602052895f2096519080821015610db257509a610d3d91610d257f77bde115076ea146490886f6cce75ddb376f63271bb910e4764f30374d4db9229c9d89611195565b51875462ffff001916911660081b62ffff0016178655565b5184549351915192516301000000600160d81b031990941660189190911b64ffff000000161760289190911b65010000000000600160c81b03161760c89190911b60ff60c81b161790151560d01b60ff60d01b16179055610d9d85611de0565b50610daa83518093611013565b6020820152a2005b602190634e487b7160e01b5f525260245ffd5b823461020c57602036600319011261020c57602090610205610de5610fe7565b6110a0565b823461020c578060031936011261020c57610e03610ffd565b90336001600160a01b03831603610e1f575061038b9135611685565b5163334bd91960e11b81529050fd5b823461020c578060031936011261020c5761038b9135610e516001610375610ffd565b61160f565b823461020c57602036600319011261020c57602091355f525f82526001815f2001549051908152f35b823461020c57602036600319011261020c5760c09060ff6001600160a01b0380610ea7610fe7565b165f526002602052825f20549061ffff93805194610ec786868616611013565b808460081c1660208701528360181c16908501528160281c166060840152818160c81c16608084015260d01c16151560a0820152f35b3461020c57602036600319011261020c57610f16610fe7565b610f1e61151f565b600780546001600160a01b0319166001600160a01b0392909216919091179055005b823461020c575f36600319011261020c57602090517f68e79a7bf1e0bc45d0a330c573bc367f9cf464fd326078812f301165fbda4ef18152f35b90503461020c575f36600319011261020c5760209151908152f35b903461020c57602036600319011261020c57359063ffffffff60e01b821680920361020c57602091637965db0b60e01b8114908115610fd6575b5015158152f35b6301ffc9a760e01b14905083610fcf565b600435906001600160a01b038216820361020c57565b602435906001600160a01b038216820361020c57565b9060048210156110205752565b634e487b7160e01b5f52602160045260245ffd5b805482101561104d575f52600660205f20910201905f90565b634e487b7160e01b5f52603260045260245ffd5b90600481101561104d5760051b0190565b9190820180921161107f57565b634e487b7160e01b5f52601160045260245ffd5b9190820391821161107f57565b6110a9906116f7565b6110d56110ca6110bf8351602085015190611072565b604084015190611072565b606083015190611072565b9081156110f9576110e5906118e2565b818110156110f9576110f691611093565b90565b50505f90565b60c0810190811067ffffffffffffffff82111761111b57604052565b634e487b7160e01b5f52604160045260245ffd5b60e0810190811067ffffffffffffffff82111761111b57604052565b6080810190811067ffffffffffffffff82111761111b57604052565b90601f8019910116810190811067ffffffffffffffff82111761111b57604052565b60048210156110205752565b9060048110156110205760ff80198354169116179055565b6111b6906116f7565b6111cc6110ca6110bf8351602085015190611072565b9081156110f9576110e590611959565b600481101561102057801561120d5760018114611206576002146112005761177090565b6101f490565b5061119490565b5061138890565b9081526001600160a01b0390911660208201526080810193929160609190611240906040830190611013565b0152565b9694959091929360018060a01b0380981694855f5260058060205260409160405f209a5f5b8c54811015611322578c82828a6112808285611034565b5054149283611303575b50505061129957600101611269565b90506112fe9697989a508b6112ef9260026112d77f155a2706ee7f38c2b68dac0a0cbe96664e0493a66481bb6966658312cffb95f39d9f8590611034565b5001558660046112e78484611034565b500155611034565b50429101555194859485611214565b0390a2565b60019293509061131291611034565b50015416828a161482828f61128a565b5091509799915097939495976040519161133b8361112f565b8683526020830191808916835260408401998a52606084019961135e868c611189565b608085019361ffff809916855260a086019288845260c08701944286528054600160401b81101561111b5761139891600182018155611034565b97909761143857518755600187019151166bffffffffffffffffffffffff60a01b8254161790555160028501556003840199516004811015611020578a6112fe9860059561140a611422947f155a2706ee7f38c2b68dac0a0cbe96664e0493a66481bb6966658312cffb95f39f611195565b51825462ffff001916911660081b62ffff0016179055565b5160048401555191015560405194859485611214565b634e487b7160e01b5f525f60045260245ffd5b611454906116f7565b61146a6110ca6110bf8351602085015190611072565b9081156110f957905f915f915b600483106114855750505090565b9091926114b16001916114ab6114a58561149f8989611061565b51611b56565b80611bcc565b90611072565b93019190611477565b906040516114c78161112f565b60c0600582948054845260018060a01b0360018201541660208501526002810154604085015261ffff600382015461150560ff821660608801611189565b60081c166080850152600481015460a08501520154910152565b335f9081527fad3228b676f7d3cd4284a5443f17f1962b36e491b30a40b2405849e597ba5fb5602052604090205460ff161561155757565b60405163e2517d3f60e01b81523360048201525f6024820152604490fd5b335f9081527fe84508f2c7fa9c351146748b3025cb78b45df37d868e48c6a75102fecdeee64560205260409020547f241ecf16d79d0f8dbfb92cbc07fe17840425976cf0667f022fe9877caa831b089060ff16156115d05750565b6044906040519063e2517d3f60e01b82523360048301526024820152fd5b805f525f60205260405f20335f5260205260ff60405f205416156115d05750565b90815f525f60205260405f209060018060a01b031690815f5260205260ff60405f205416155f146110f957815f525f60205260405f20815f5260205260405f20600160ff1982541617905533917f2f8788117e7eff1d82e926ec794901d17c78024a50270940304540a733656f0d5f80a4600190565b90815f525f60205260405f209060018060a01b031690815f5260205260ff60405f2054165f146110f957815f525f60205260405f20815f5260205260405f2060ff19815416905533917ff6391f5c32d9c69d2a47ea670b442974b53935d1edc7fd64eb21e047a839171b5f80a4600190565b9060408051906117068261114b565b60809360803684378294600354905f5b8281106117bc5750505060018060a01b03165f5260056020525f205f91815491600854935b838110611749575050505050565b61175661029f8284611034565b60a081018051156117b2578661177060c084015142611093565b116117b2576060905191015190600480831015610db25750906117aa6117a36001949361179d8489611061565b51611072565b9186611061565b525b0161173b565b50506001906117ac565b60018060a01b0380827fc2575a0e9e593c00f959f8c92f12db2869c3395a3b0502d05e2516446f71f85b01541690815f52602060028152875f2092885193611803856110ff565b549260ff9161181483861687611189565b61ffff808660081c16858801528560181c168b8701526060860193828660281c1685528389880196818160c81c16885260d01c1615801560a08901526118d357828b165f52600181528b5f20915f5252895f20549283156118c5575161187a9116611cbe565b92511691604d831161107f5761189392600a0a91611c33565b905190600480831015610db25750906118bd6118b66001949361179d848c611061565b9189611061565b525b01611716565b5050505050506001906118bf565b505050505050506001906118bf565b5f805b6004908183101561194c576119126118fc84611d80565b61ffff6119098688611061565b51911690611bcc565b9182800292808404811490151715611939575060019161193191611072565b9101906118e5565b601190634e487b7160e01b5f525260245ffd5b9150506110f69150611d9b565b5f905f905b6004821061196b57505090565b909161198c6001916114ab61197f86611d80565b61ffff6119098888611061565b92019061195e565b60405163a9059cbb60e01b5f9081526001600160a01b039384166004526024949094529260209060448180855af160015f51148116156119f3575b83604052156119dd57505050565b635274afe760e01b835216600482015260249150fd5b6001811516611a0957813b15153d1516166119cf565b833d5f823e3d90fd5b8115611a1c570490565b634e487b7160e01b5f52601260045260245ffd5b670de0b6b3a7640000915f198383099280830292838086109503948086039514611ac45784831115611aac5790829109815f038216809204600280826003021880830282030280830282030280830282030280830282030280830282030280920290030293600183805f03040190848311900302920304170290565b82634e487b715f52156003026011186020526024601cfd5b5050906110f69250611a12565b905f1981830981830291828083109203918083039214611b4557670de0b6b3a76400009082821115611b33577faccb18165bd6fe31ae1cf318dc5b51eee0e1ba569b88cd74c1773b91fac10669940990828211900360ee1b910360121c170290565b634e487b715f5260116020526024601cfd5b5050670de0b6b3a764000091500490565b612710915f198383099280830292838086109503948086039514611ac45784831115611aac5790829109815f038216809204600280826003021880830282030280830282030280830282030280830282030280830282030280920290030293600183805f03040190848311900302920304170290565b905f1981830981830291828083109203918083039214611c28576127109082821115611b33577fbc01a36e2eb1c432ca57a786c226809d495182a9930be0ded288ce703afb7e91940990828211900360fc1b910360041c170290565b505061271091500490565b90915f198383099280830292838086109503948086039514611ac45784831115611aac5790829109815f038216809204600280826003021880830282030280830282030280830282030280830282030280830282030280920290030293600183805f03040190848311900302920304170290565b519069ffffffffffffffffffff8216820361020c57565b6001600160a01b03168015611d735760a060049160405192838092633fabe5a360e21b82525afa908115611d68575f91611d1b575b505f811315611d16576402540be4009081810291818304149015171561107f5790565b505f90565b905060a0813d60a011611d60575b81611d3660a09383611167565b8101031261020c57611d4781611ca7565b50611d59608060208301519201611ca7565b505f611cf3565b3d9150611d29565b6040513d5f823e3d90fd5b50670de0b6b3a764000090565b801561120d5760018114611206576002146112005761177090565b8015611d1657600180820180831161107f5760011c90825b838310611dc05750505090565b90919250611dd783611dd28184611a12565b611072565b821c9190611db3565b805f52600460205260405f2054155f14611d1657600354600160401b81101561111b57600181018060035581101561104d5781907fc2575a0e9e593c00f959f8c92f12db2869c3395a3b0502d05e2516446f71f85b0155600354905f52600460205260405f205560019056fea26469706673582212203059cc4d548795e979aad404de34c32bb958139e7ec4fd0d4145bff84d66972064736f6c634300081800332f8788117e7eff1d82e926ec794901d17c78024a50270940304540a733656f0dad3228b676f7d3cd4284a5443f17f1962b36e491b30a40b2405849e597ba5fb5000000000000000000000000d9a1048f900e57c0c320ef11effaf725d1a9353f",
        "nonce": "0x7",
        "chainId": "0x14a34"
      },
      "additionalContracts": [],
      "isFixedGasLimit": false
    },
    {
      "hash": "0xa7f8658d73a03a2d96cf99a4f1b013958c60901e954927f4b2da21bc3b608c9e",
      "transactionType": "CREATE",
      "contractName": "InterestRateModel",
      "contractAddress": "0x56b3d1ad2e803c893cc8ecfda638d5979ba45291",
      "function": null,
      "arguments": null,
      "transaction": {
        "from": "0xd9a1048f900e57c0c320ef11effaf725d1a9353f",
        "gas": "0x4ed4a",
        "value": "0x0",
        "input": "0x6080806040523461001657610388908161001b8239f35b5f80fdfe6040608081526004361015610012575f80fd5b5f3560e01c80630d70e7e3146100db578063321105fb146100b95780633bf42d4b1461009757806341910f90146100765763cf762dfa14610051575f80fd5b34610072575f3660031901126100725760209051670b1a2bc2ec5000008152f35b5f80fd5b5034610072575f366003190112610072576020905166470de4df8200008152f35b5034610072575f3660031901126100725760209051670de0b6b3a76400008152f35b5034610072575f36600319011261007257602090516702c68af0bb1400008152f35b50346100725780600319360112610072576020906100fd602435600435610104565b9051908152f35b9080156101875761011491610194565b670b1a2bc2ec50000081116101555761012c906102d7565b66470de4df8200009081018091116101415790565b634e487b7160e01b5f52601160045260245ffd5b670b1a2bc2ec4fffff198101908111610141576101719061024a565b67030d98d59a9600009081018091116101415790565b505066470de4df82000090565b670de0b6b3a7640000915f19838309928083029283808610950394808603951461022857848311156102105790829109815f038216809204600280826003021880830282030280830282030280830282030280830282030280830282030280920290030293600183805f03040190848311900302920304170290565b82634e487b715f52156003026011186020526024601cfd5b505080925015610236570490565b634e487b7160e01b5f52601260045260245ffd5b670de0b6b3a76400005f19818309818302918280831092039180830392146102c6576702c68af0bb14000090828211156102b4577f5ff7786fcb32f6f86690bf7c4dc899aa6468a3b109ac0347c75429d9e5c5200d940990828211900360ee1b910360121c170290565b634e487b715f5260116020526024601cfd5b50506702c68af0bb14000091500490565b6702c68af0bb1400005f198183098183029182808310920391808303921461034157670b1a2bc2ec50000090828211156102b4577f5ff7786fcb32f6f86690bf7c4dc899aa6468a3b109ac0347c75429d9e5c5200d940990828211900360ec1b910360141c170290565b5050670b1a2bc2ec5000009150049056fea2646970667358221220d6557bae40e2989d32806b058db264e853dc31e34182df3304acc7198c186d2864736f6c63430008180033",
        "nonce": "0x8",
        "chainId": "0x14a34"
      },
      "additionalContracts": [],
      "isFixedGasLimit": false
    },
    {
      "hash": "0xe8ee3940e734f78732f5f2e3881902c8b2b7de1806874b02db42e3452ecf23d5",
      "transactionType": "CREATE",
      "contractName": "ElasticLendingPool",
      "contractAddress": "0x412f577b7e4f8ac392ba9d8876d7a17e4891f6ab",
      "function": null,
      "arguments": [
        "0x2C5Bedd15f3d40Da729A68D852E4f436dA14ef79",
        "0xD9a1048f900E57C0C320eF11eFfAF725d1a9353f",
        "0x15880a9E1719AAd5a37C99203c51C2E445651c94",
        "0x56B3D1AD2E803c893CC8ecfdA638d5979BA45291"
      ],
      "transaction": {
        "from": "0xd9a1048f900e57c0c320ef11effaf725d1a9353f",
        "gas": "0x2f7884",
        "value": "0x0",
        "input": "0x60c0346200055f57601f62002d2a38819003918201601f19168301916001600160401b038311848410176200043b578084926080946040528339810103126200055f578051906001600160a01b03821682036200055f5762000064602082016200057f565b62000080606062000078604085016200057f565b93016200057f565b926040516200008f8162000563565b601781527f456c61737469634c656e64205661756c74205368617265000000000000000000602082015260405190620000c88262000563565b6007825266195b159055531560ca1b60208301528051906001600160401b0382116200043b5760035490600182811c9216801562000554575b60208310146200041c5781601f849311620004e4575b50602090601f83116001146200045b575f926200044f575b50508160011b915f199060031b1c1916176003555b8051906001600160401b0382116200043b57600454600181811c9116801562000430575b60208210146200041c57601f8111620003b8575b50602090601f831160011462000345576200026b949392915f918362000339575b50508160011b915f199060031b1c1916176004555b60405160405f6020830163313ce56760e01b815260048452620001d58462000563565b8351906001600160a01b0386165afa5f5191604052806200032d575b8062000321575b15620003185760ff1660015b156200030f575b60a05260805260017f9b779b17422d0df92223018b32b4d1fa46e071723d6817e2486d003becc55f0055670de0b6b3a7640000600b556200024c8162000594565b50620002588162000604565b506200026481620006a5565b5062000740565b5060068054610100600160a81b03191660089290921b610100600160a81b0316919091179055600780546001600160a01b0319166001600160a01b039290921691909117905542600a5560405161250e9081620007dc82396080518181816104ef0152818161080401528181610fdf01528181611095015281816116dd01528181611815015281816119280152818161226e01526123c3015260a051816111950152f35b5060126200020b565b505f8062000204565b5060ff811115620001f8565b5060203d1015620001f1565b015190505f806200019d565b9060045f5260205f20915f5b601f19851681106200039f57509183916001936200026b979695601f1981161062000386575b505050811b01600455620001b2565b01515f1960f88460031b161c191690555f808062000377565b9192602060018192868501518155019401920162000351565b60045f527f8a35acfbc15ff81a39ae7d344fd709f28e8600b4aa8c65c6b64bfe7fe36bd19b601f840160051c81016020851062000414575b601f830160051c82018110620004085750506200017c565b5f8155600101620003f0565b5080620003f0565b634e487b7160e01b5f52602260045260245ffd5b90607f169062000168565b634e487b7160e01b5f52604160045260245ffd5b015190505f806200012f565b60035f9081527fc2575a0e9e593c00f959f8c92f12db2869c3395a3b0502d05e2516446f71f85b9350601f198516905b818110620004cb5750908460019594939210620004b2575b505050811b0160035562000144565b01515f1960f88460031b161c191690555f8080620004a3565b929360206001819287860151815501950193016200048b565b60035f529091507fc2575a0e9e593c00f959f8c92f12db2869c3395a3b0502d05e2516446f71f85b601f840160051c8101602085106200054c575b90849392915b601f830160051c820181106200053d57505062000117565b5f815585945060010162000525565b50806200051f565b91607f169162000101565b5f80fd5b604081019081106001600160401b038211176200043b57604052565b51906001600160a01b03821682036200055f57565b6001600160a01b03165f8181525f8051602062002d0a833981519152602052604090205460ff16620005ff575f8181525f8051602062002d0a83398151915260205260408120805460ff191660011790553391905f8051602062002cea8339815191528180a4600190565b505f90565b6001600160a01b03165f8181527f1a57496dcc94bed8a1af58c276b4a932de2f79ef7b7ca52043261d5967bdebc160205260409020547f24e583e35a20f9ecfc1572e7cb66bcc18ad3cd1650ec40dbf6ad2290e553a9fa919060ff166200069f57815f52600560205260405f20815f5260205260405f20600160ff1982541617905533915f8051602062002cea8339815191525f80a4600190565b50505f90565b6001600160a01b03165f8181527f99f2891db7a8db76249871a02b43b68c0bb8f22ef8a3bc1034ae9375ef6b7c3c60205260409020547f65d7a28e3265b37a6474929f336521b332c1681b933f6cb9f3376673440d862a919060ff166200069f57815f52600560205260405f20815f5260205260405f20600160ff1982541617905533915f8051602062002cea8339815191525f80a4600190565b6001600160a01b03165f8181527fd04e5a25a3c05301a2126764b4c6e1fa436d5c84eac9299ad9076e66cd1a0dfb60205260409020547f5e17fc5225d4a099df75359ce1f405503ca79498a8dc46a7d583235a0ee45c16919060ff166200069f57815f52600560205260405f20815f5260205260405f20600160ff1982541617905533915f8051602062002cea8339815191525f80a460019056fe604060808152600480361015610013575f80fd5b5f3560e01c90816301e1d1141461152057816301ffc9a7146114cc57816304c44130146114a757816306fdde03146113b357816307a2d13a14610ec5578163095ea7b31461130b5781630a28a477146112ed57816316d8887a146112b357816318160ddd1461129557816323b872dd1461125957816323be345c1461122d578163248a9ca3146112035781632f2ff15d146111db578163313ce5671461118057816336568abe1461113c578163371fd8e61461100e57816338d52e0f14610fcb57816339c82f5c14610fa95781633ccb7ba114610f845781633f4ba83a14610f1d578163402d267d14610450578163450ab5fe14610ee85781634c19386c14610eca5781634cdad50614610ec55781635c975abb14610ea25781636e553f6514610e6f57816370a0823114610e4f57816377c6cadf14610e2d5781637bf7f7a214610df65781637eb7113114610dda578163842a05d414610d925781638456cb5914610d395781638bcd401614610cf657816391d1485414610cb257816394bf804d14610c7f57816395d89b4114610b7d5781639a7d781314610b46578163a217fddf14610b2c578163a6afed9514610b14578163a9059cbb14610ae4578163aa5af0fd14610ac6578163b3d7f6b914610aa8578163b460af9414610a22578163b8f6dba7146109e8578163ba0876521461095f578163ba1c5e80146108c0578163bcbaf48714610787578163c0789dcb14610769578163c5ebeaec14610455578163c63d75b614610450578163c6e6f592146102dc578163ce96cb7714610428578163d547741f146103ec57508063d905777e146103b2578063dd62ed3e14610369578063e5e63d7714610347578063e63ab1e91461030d578063e65896c9146102e1578063ef8b30f7146102dc5763f3fdb15a146102b1575f80fd5b346102d8575f3660031901126102d85760075490516001600160a01b039091168152602090f35b5f80fd5b61164d565b50346102d85760203660031901126102d85760209061030661030161153c565b611b6b565b9051908152f35b50346102d8575f3660031901126102d857602090517f65d7a28e3265b37a6474929f336521b332c1681b933f6cb9f3376673440d862a8152f35b50346102d8575f3660031901126102d85760209051670f43fc2c04ee00008152f35b50346102d857806003193601126102d85760209061038561153c565b61038d611552565b9060018060a01b038091165f5260018452825f2091165f528252805f20549051908152f35b50346102d85760203660031901126102d8576020906103066103d261153c565b6001600160a01b03165f9081526020819052604090205490565b82346102d857806003193601126102d8576104269135610421600161040f611552565b93835f5260056020525f20015461206f565b61210f565b005b82346102d85760203660031901126102d85760209061030661044b6103d261153c565b611d73565b6115d5565b82346102d857602090816003193601126102d857823591610474612183565b61047c6121b2565b82156107595761048a6119dc565b61049333611978565b61049c816115fa565b6003810361073b57506104ae33611b6b565b60065483516336ba193360e01b815233818801529195906001600160a01b039084908490602490829060081c85165afa92831561066c575f9361070c575b507f00000000000000000000000000000000000000000000000000000000000000001691845163313ce56760e01b815284818481875afa908115610702575f916106d5575b5060ff61053e888a6116a1565b911660120390601282116106c257610560839161055a8461178a565b90611798565b1161067657505083516370a0823160e01b815230828201528381602481865afa90811561066c575f9161063f575b508086116106235750508380956105ff7feae9cfbc77fdd40ca899f36b608256063b2bc9d8178b0220f7ad513e178d67309661060494335f5260098752875f206105d98382546116a1565b9055600b54335f52600c8852885f20556105f5826008546116a1565b6008553390612439565b6116a1565b9082519485528401523392a260015f805160206124b983398151915255005b84516303eb0d9b60e51b81529182015260248101859052604490fd5b90508381813d8311610665575b610656818361166b565b810103126102d857518761058e565b503d61064c565b85513d5f823e3d90fd5b858861068f604495946106898b9561178a565b90611b4d565b90808211156106b9576106a19161177d565b905b516314c3efb360e11b8152928301526024820152fd5b50505f906106a3565b601184634e487b7160e01b5f525260245ffd5b6106f59150853d87116106fb575b6106ed818361166b565b810190611764565b88610531565b503d6106e3565b86513d5f823e3d90fd5b9092508381813d8311610734575b610724818361166b565b810103126102d8575191876104ec565b503d61071a565b8251634b4c1f0d60e11b815260249186610754826115fa565b820152fd5b8151631f2a200560e01b81528490fd5b82346102d8575f3660031901126102d857602090600a549051908152f35b82346102d857806003193601126102d8576107a061153c565b90602435926107ad612183565b6107b56121b2565b6107bd6119dc565b6107c6836117ab565b670de0b6b3a76400008110156108ac5750506107e182611b6b565b92838111156108a65750825b6001600160a01b039061082f90859061082a8230337f000000000000000000000000000000000000000000000000000000000000000088166121d0565b61177d565b921691825f526009602052815f2055600b54600c602052815f205561085f6008548085115f1461089f578061177d565b600855519182527fde0aa27286f5cb3a4ed853dc4823ead62d63e92cdf13de09d6aece56970721a460203393a360015f805160206124b983398151915255005b849061177d565b926107ed565b6024925191630126fec960e31b8352820152fd5b82346102d8575f3660031901126102d857602060018060a01b0360075416926044600854916108ed6116c2565b9585519687948593630d70e7e360e01b855284015260248301525afa908115610956575f91610921575b6020925051908152f35b90506020823d60201161094e575b8161093c6020938361166b565b810103126102d8576020915190610917565b3d915061092f565b513d5f823e3d90fd5b82346102d85761096e36611618565b92919361098b8460018060a01b03165f525f60205260405f205490565b8086116109b3575050836109ad916109a4602096611d73565b9485913361231a565b51908152f35b9251632e52afbb60e21b81526001600160a01b0390941690840190815260208101949094525060408301529081906060010390fd5b82346102d8575f3660031901126102d857602090517f24e583e35a20f9ecfc1572e7cb66bcc18ad3cd1650ec40dbf6ad2290e553a9fa8152f35b82346102d857610a3136611618565b929193610a5161044b8560018060a01b03165f525f60205260405f205490565b808611610a735750506109ad9084610a6a602096611d9e565b9485923361231a565b9251633fa733bb60e21b81526001600160a01b0390941690840190815260208101949094525060408301529081906060010390fd5b82346102d85760203660031901126102d85761030660209235611d48565b82346102d8575f3660031901126102d857602090600b549051908152f35b82346102d857806003193601126102d857602090610b0d610b0361153c565b6024359033611ec1565b5160018152f35b346102d8575f3660031901126102d8576104266119dc565b82346102d8575f3660031901126102d857602090515f8152f35b82346102d85760203660031901126102d8576020906001600160a01b03610b6b61153c565b165f5260098252805f20549051908152f35b82346102d8575f3660031901126102d8578051905f9280549060018260011c9160018416938415610c75575b6020948585108114610c6257848852908115610c405750600114610be7575b610be38686610bd9828b038361166b565b5191829182611568565b0390f35b5f9081529295507f8a35acfbc15ff81a39ae7d344fd709f28e8600b4aa8c65c6b64bfe7fe36bd19b5b828410610c2d5750505082610be394610bd9928201019486610bc8565b8054868501880152928601928101610c10565b60ff191687860152505050151560051b8301019250610bd982610be386610bc8565b602283634e487b7160e01b5f525260245ffd5b92607f1692610ba9565b82346102d857806003193601126102d85760209135906109ad610ca0611552565b92610caa81611d48565b809433612259565b82346102d857806003193601126102d857602091610cce611552565b90355f5260058352815f209060018060a01b03165f52825260ff815f20541690519015158152f35b346102d85760203660031901126102d857610d0f61153c565b610d17612014565b600780546001600160a01b0319166001600160a01b0392909216919091179055005b82346102d8575f3660031901126102d85760207f62e78cea01bee320cd4e420270b5ea74000d11b0c9f74754ebdbfc544b05a25891610d76611f9b565b610d7e6121b2565b600160ff19600654161760065551338152a1005b346102d85760203660031901126102d857610dab61153c565b610db3612014565b60068054610100600160a81b03191660089290921b610100600160a81b0316919091179055005b82346102d8575f3660031901126102d8576020906103066119c2565b82346102d85760203660031901126102d8576020906001600160a01b03610e1b61153c565b165f52600c8252805f20549051908152f35b82346102d8575f3660031901126102d85760209051670de0b6b3a76400008152f35b82346102d85760203660031901126102d8576020906103066103d261153c565b82346102d857806003193601126102d85760209135906109ad610e90611552565b610e9984611dc9565b93849133612259565b82346102d8575f3660031901126102d85760209060ff6006541690519015158152f35b6115af565b82346102d8575f3660031901126102d8576020906008549051908152f35b82346102d85760203660031901126102d857602090610f0d610f0861153c565b611978565b905190610f19816115fa565b8152f35b82346102d8575f3660031901126102d857610f36611f9b565b6006549160ff831615610f76577f5db9ee0a495bf2e6ff9c91a7834c1ba4fdd244a5e8aa4e537bd38aeae4b073aa6020838560ff191660065551338152a1005b9051638dfc202b60e01b8152fd5b82346102d85760203660031901126102d857602090610306610fa461153c565b6118bf565b82346102d8575f3660031901126102d8576020905167120a871cc00200008152f35b82346102d8575f3660031901126102d857517f00000000000000000000000000000000000000000000000000000000000000006001600160a01b03168152602090f35b82346102d85760203660031901126102d857813561102a612183565b6110326121b2565b61103a6119dc565b61104333611b6b565b92831561112e57505f198103611128575081905b828211611120575b6110f98280946110ba7f1b8cd61ed43bec7c6bdad3a18ffee613f99c853d16c50678d248d879e1b4343895303360018060a01b037f0000000000000000000000000000000000000000000000000000000000000000166121d0565b6110c4828261177d565b335f526009602052845f2055600b54600c602052845f20556110f16008548084115f14611119578061177d565b60085561177d565b815193845260208401523392a260015f805160206124b983398151915255005b839061177d565b82915061105f565b90611057565b82516369973fe360e11b8152fd5b82346102d857806003193601126102d857611155611552565b90336001600160a01b038316036111715750610426913561210f565b5163334bd91960e11b81529050fd5b82346102d8575f3660031901126102d85760ff7f0000000000000000000000000000000000000000000000000000000000000000169060ff82116111c8576020925051908152f35b601183634e487b7160e01b5f525260245ffd5b82346102d857806003193601126102d85761042691356111fe600161040f611552565b612091565b82346102d85760203660031901126102d857602091355f52600582526001815f2001549051908152f35b82346102d8575f3660031901126102d857600654905160089190911c6001600160a01b03168152602090f35b82346102d85760603660031901126102d857602090610b0d61127961153c565b611281611552565b60443591611290833383611df4565b611ec1565b82346102d8575f3660031901126102d8576020906002549051908152f35b82346102d8575f3660031901126102d857602090517f5e17fc5225d4a099df75359ce1f405503ca79498a8dc46a7d583235a0ee45c168152f35b82346102d85760203660031901126102d85761030660209235611d9e565b82346102d857806003193601126102d85761132461153c565b60243590331561139d576001600160a01b03169081156113875760209350335f5260018452825f20825f52845280835f205582519081527f8c5be1e5ebec7d5bd14f71427d1e84f3dd0314c0f7b2291e5b200ac8c7c3b925843392a35160018152f35b8251634a1406b160e11b81525f81860152602490fd5b825163e602df0560e01b81525f81860152602490fd5b82346102d8575f3660031901126102d8578051905f9260035460018160011c9160018116801561149d575b602094858510821461148a575083875290811561146a5750600114611410575b505050610bd982610be394038361166b565b60035f9081529295507fc2575a0e9e593c00f959f8c92f12db2869c3395a3b0502d05e2516446f71f85b5b8284106114575750505082610be394610bd992820101946113fe565b805486850188015292860192810161143b565b60ff1916868501525050151560051b8301019250610bd982610be36113fe565b602290634e487b7160e01b5f525260245ffd5b92607f16926113de565b82346102d85760203660031901126102d8576020906103066114c761153c565b6117ab565b9050346102d85760203660031901126102d8573563ffffffff60e01b81168091036102d857602091637965db0b60e01b821491821561150f575b50519015158152f35b6301ffc9a760e01b1491505f611506565b82346102d8575f3660031901126102d8576020906103066116c2565b600435906001600160a01b03821682036102d857565b602435906001600160a01b03821682036102d857565b602080825282518183018190529093925f5b82811061159b57505060409293505f838284010152601f8019910116010190565b81810186015184820160400152850161157a565b346102d85760203660031901126102d85760206115cd600435611d73565b604051908152f35b346102d85760203660031901126102d8576115ee61153c565b5060206040515f198152f35b6004111561160457565b634e487b7160e01b5f52602160045260245ffd5b60609060031901126102d857600435906001600160a01b039060243582811681036102d8579160443590811681036102d85790565b346102d85760203660031901126102d85760206115cd600435611dc9565b90601f8019910116810190811067ffffffffffffffff82111761168d57604052565b634e487b7160e01b5f52604160045260245ffd5b919082018092116116ae57565b634e487b7160e01b5f52601160045260245ffd5b6040516370a0823160e01b81523060048201526020816024817f00000000000000000000000000000000000000000000000000000000000000006001600160a01b03165afa8015611759575f90611725575b6117229150600854906116a1565b90565b506020813d602011611751575b8161173f6020938361166b565b810103126102d8576117229051611714565b3d9150611732565b6040513d5f823e3d90fd5b908160209103126102d8575160ff811681036102d85790565b919082039182116116ae57565b604d81116116ae57600a0a90565b818102929181159184041417156116ae57565b6117b481611b6b565b9081156118b8576006546040516336ba193360e01b81526001600160a01b0392831660048201529160209182908490602490829060081c85165afa928315611759575f93611889575b50816004916040519283809263313ce56760e01b82527f0000000000000000000000000000000000000000000000000000000000000000165afa9081156117595760ff925f9261186c575b505016601203601281116116ae576117229261055a6118669261178a565b90611ba8565b6118829250803d106106fb576106ed818361166b565b5f80611848565b9092508181813d83116118b1575b6118a1818361166b565b810103126102d8575191816117fd565b503d611897565b50505f1990565b6118c881611b6b565b9081156118b85760065460405163525865f760e11b81526001600160a01b0392831660048201529160209182908490602490829060081c85165afa928315611759575f936118895750816004916040519283809263313ce56760e01b82527f0000000000000000000000000000000000000000000000000000000000000000165afa9081156117595760ff925f9261186c57505016601203601281116116ae576117229261055a6118669261178a565b611981906117ab565b670de0b6b3a764000081106119bd57670f43fc2c04ee000081106119b75767120a871cc0020000116119b257600390565b600290565b50600190565b505f90565b6119ca6116c2565b80156119bd5761172290600854611ba8565b600a5480421115611b4a576119f1904261177d565b6119f96116c2565b600754600854604051630d70e7e360e01b81526004810182905260248101849052909291602090829060449082906001600160a01b03165afa908115611759575f91611af2575b50908382611a7b611a757fe9d95e658b0c714da9de2e12fbed253a24a632058a074dc7c90b8b6618675c7c9760609796611798565b85611c49565b938480611aba575b505042600a5550508015611ab357611a9d90600854611ba8565b600b5460405192835260208301526040820152a1565b505f611a9d565b611ae693611ace611ada92611ae0946116a1565b600855600b5493611798565b82611c49565b906116a1565b600b555f808084611a83565b929190506020833d602011611b42575b81611b0f6020938361166b565b810103126102d85791519091907fe9d95e658b0c714da9de2e12fbed253a24a632058a074dc7c90b8b6618675c7c611a40565b3d9150611b02565b50565b8115611b57570490565b634e487b7160e01b5f52601260045260245ffd5b6001600160a01b03165f9081526009602052604090205480156119bd57600c60205260405f20548015611ba457600b5461172292611cd4565b5090565b670de0b6b3a7640000915f198383099280830292838086109503948086039514611c3c5784831115611c245790829109815f038216809204600280826003021880830282030280830282030280830282030280830282030280830282030280920290030293600183805f03040190848311900302920304170290565b82634e487b715f52156003026011186020526024601cfd5b5050906117229250611b4d565b905f1981830981830291828083109203918083039214611cc0576a1a1a94ec861d5c338000009082821115611cae577ff288f8a0f521e5731354cbe99680fc2fab14304f5761919477c0f30a1038e357940990828211900360e91b910360171c170290565b634e487b715f5260116020526024601cfd5b50506a1a1a94ec861d5c3380000091500490565b90915f198383099280830292838086109503948086039514611c3c5784831115611c245790829109815f038216809204600280826003021880830282030280830282030280830282030280830282030280830282030280920290030293600183805f03040190848311900302920304170290565b611d506116c2565b600181018091116116ae5760025490600182018092116116ae5761172292612498565b611d7b6116c2565b600181018091116116ae5760025490600182018092116116ae5761172292611cd4565b600254600181018091116116ae57611db46116c2565b90600182018092116116ae5761172292612498565b600254600181018091116116ae57611ddf6116c2565b90600182018092116116ae5761172292611cd4565b919060018060a01b0380931692835f526001602052604093845f2091831691825f52602052845f2054925f198410611e2f575b505050505050565b848410611e9157508015611e7a578115611e63575f526001602052835f20905f5260205203905f20555f8080808080611e27565b8451634a1406b160e11b81525f6004820152602490fd5b845163e602df0560e01b81525f6004820152602490fd5b8551637dc7a0d960e11b81526001600160a01b039190911660048201526024810184905260448101859052606490fd5b916001600160a01b03808416928315611f835716928315611f6b57825f525f60205260405f205490828210611f395750817fddf252ad1be2c89b69c2b068fc378daa952ba7f163c4a11628f55a4df523b3ef92602092855f525f84520360405f2055845f5260405f20818154019055604051908152a3565b60405163391434e360e21b81526001600160a01b03919091166004820152602481019190915260448101829052606490fd5b60405163ec442f0560e01b81525f6004820152602490fd5b604051634b637e8f60e11b81525f6004820152602490fd5b335f9081527f99f2891db7a8db76249871a02b43b68c0bb8f22ef8a3bc1034ae9375ef6b7c3c60205260409020547f65d7a28e3265b37a6474929f336521b332c1681b933f6cb9f3376673440d862a9060ff1615611ff65750565b6044906040519063e2517d3f60e01b82523360048301526024820152fd5b335f9081527f1a57496dcc94bed8a1af58c276b4a932de2f79ef7b7ca52043261d5967bdebc160205260409020547f24e583e35a20f9ecfc1572e7cb66bcc18ad3cd1650ec40dbf6ad2290e553a9fa9060ff1615611ff65750565b805f52600560205260405f20335f5260205260ff60405f20541615611ff65750565b90815f52600560205260405f209060018060a01b031690815f5260205260ff60405f205416155f1461210957815f52600560205260405f20815f5260205260405f20600160ff1982541617905533917f2f8788117e7eff1d82e926ec794901d17c78024a50270940304540a733656f0d5f80a4600190565b50505f90565b90815f52600560205260405f209060018060a01b031690815f5260205260ff60405f2054165f1461210957815f52600560205260405f20815f5260205260405f2060ff19815416905533917ff6391f5c32d9c69d2a47ea670b442974b53935d1edc7fd64eb21e047a839171b5f80a4600190565b5f805160206124b983398151915260028154146121a05760029055565b604051633ee5aeb560e01b8152600490fd5b60ff600654166121be57565b60405163d93c066560e01b8152600490fd5b6040516323b872dd60e01b5f9081526001600160a01b03938416600452938316602452604494909452909160209060648180855af160015f511481161561223a575b836040525f6060521561222457505050565b635274afe760e01b835216600482015260249150fd5b600181151661225057813b15153d151616612212565b833d5f823e3d90fd5b6001600160a01b0393909184906122948530867f000000000000000000000000000000000000000000000000000000000000000086166121d0565b16938415611f6b577fdcbc1c05240f31ff3ad067ef1ee35ce4997762752e3a095284754544f4c709d792826122cd6040946002546116a1565b600255865f525f602052835f20818154019055865f7fddf252ad1be2c89b69c2b068fc378daa952ba7f163c4a11628f55a4df523b3ef60208751858152a3835195865260208601521692a3565b6001600160a01b03808416958183169493919281888703612428575b50508615611f8357865f525f602052604093845f2054908282106123f7575090807ffbde797d201c681b91056529119e0b02407c7bb96a4a2c75c01fc9667232c8db95949392895f525f60205203845f205580600254036002555f887fddf252ad1be2c89b69c2b068fc378daa952ba7f163c4a11628f55a4df523b3ef60208751858152a36123e88783857f000000000000000000000000000000000000000000000000000000000000000016612439565b835196875260208701521693a4565b855163391434e360e21b81526001600160a01b03919091166004820152602481019190915260448101829052606490fd5b6124329186611df4565b5f81612336565b60405163a9059cbb60e01b5f9081526001600160a01b039384166004526024949094529260209060448180855af160015f5114811615612482575b836040521561222457505050565b600181151661225057813b15153d151616612474565b916124a4818385611cd4565b918115611b575761172293091515906116a156fe9b779b17422d0df92223018b32b4d1fa46e071723d6817e2486d003becc55f00a2646970667358221220a3cd791522ba9575827de26572decfbc0076e5e6f60c53e42846cef82b310cd964736f6c634300081800332f8788117e7eff1d82e926ec794901d17c78024a50270940304540a733656f0d05b8ccbb9d4d8fb16ea74ce3c29a41f1b461fbdaff4714a0d9a8eb05499746bc0000000000000000000000002c5bedd15f3d40da729a68d852e4f436da14ef79000000000000000000000000d9a1048f900e57c0c320ef11effaf725d1a9353f00000000000000000000000015880a9e1719aad5a37c99203c51c2e445651c9400000000000000000000000056b3d1ad2e803c893cc8ecfda638d5979ba45291",
        "nonce": "0x9",
        "chainId": "0x14a34"
      },
      "additionalContracts": [],
      "isFixedGasLimit": false
    },
    {
      "hash": "0x9693f54bcb90394cb04206d3fab01c9429bc4c6269ca74579d45d86123bfc904",
      "transactionType": "CREATE",
      "contractName": "BackstopPool",
      "contractAddress": "0x2716c3e427b33c78d01e06a5ba19a673eb5d898b",
      "function": null,
      "arguments": [
        "0xD9a1048f900E57C0C320eF11eFfAF725d1a9353f",
        "0x2C5Bedd15f3d40Da729A68D852E4f436dA14ef79",
        "1000000000"
      ],
      "transaction": {
        "from": "0xd9a1048f900e57c0c320ef11effaf725d1a9353f",
        "gas": "0x12ecc1",
        "value": "0x0",
        "input": "0x60a034620000c457601f6200111c38819003918201601f19168301916001600160401b03831184841017620000c857808492606094604052833981010312620000c4576200004d81620000dc565b906200007860406200006260208401620000dc565b920151926200007181620000f1565b5062000161565b506001600160a01b0316608052600155604051610eda908162000202823960805181818161030b0152818161051b015281816106850152818161071e015281816109740152610a040152f35b5f80fd5b634e487b7160e01b5f52604160045260245ffd5b51906001600160a01b0382168203620000c457565b6001600160a01b03165f8181525f80516020620010fc833981519152602052604090205460ff166200015c575f8181525f80516020620010fc83398151915260205260408120805460ff191660011790553391905f80516020620010dc8339815191528180a4600190565b505f90565b6001600160a01b03165f8181527f4abd6400b9997c78d78e9196606d753835c4c9602bd1252eb73eb95abbf1344960205260409020547fa714f487e9b7d04144116bbdc4586ede0e24a8be262414fb23a57f5647adec52919060ff16620001fb57815f525f60205260405f20815f5260205260405f20600160ff1982541617905533915f80516020620010dc8339815191525f80a4600190565b50505f9056fe6080604090808252600480361015610015575f80fd5b5f3560e01c91826301ffc9a71461086857508163248a9ca31461083f5781632f2ff15d1461081757816336568abe146107d35781633c594aff146106b45781633e413bee14610671578163405347b71461063757816364d4fbbf1461061957816390f7b0661461040557816391d14854146103c2578163a217fddf146103a8578163ab2f0e511461038c578163ad7a672f14610369578163b6b55f25146102e7578163bcd037c8146102c9578163bed315e21461027c578163c8123acd1461021e578163d547741f146101e3578163dce68e251461019e57508063e402080414610176578063fb001e841461014f5763fed3146414610112575f80fd5b3461014b575f36600319011261014b57602090517fa714f487e9b7d04144116bbdc4586ede0e24a8be262414fb23a57f5647adec528152f35b5f80fd5b503461014b575f36600319011261014b5760209061ffff61016e610a80565b915191168152f35b503461014b575f36600319011261014b57602090610192610959565b60015411159051908152f35b823461014b57602036600319011261014b57606091355f526003602052805f2060018060a01b0381541691600260018301549201549181519384526020840152820152f35b823461014b578060031936011261014b5761021c913561021760016102066108ba565b93835f525f6020525f200154610b36565b610c7e565b005b90503461014b57602036600319011261014b576102396108d0565b915f80525f602052805f20335f5260205260ff815f2054161561025f5761021c83610b57565b60449250519063e2517d3f60e01b825233908201525f6024820152fd5b90503461014b57602036600319011261014b577f75465d5c9bd08ee9596a0cf85bcca8b16ef466ebddb976f5e0e957cb671c11b69160209135906102be610abd565b8160015551908152a1005b823461014b575f36600319011261014b576020906001549051908152f35b823461014b57602036600319011261014b57813591821561035b575061032f8230337f0000000000000000000000000000000000000000000000000000000000000000610cf0565b519081527f42b31a206ab03affbbc09919c0a807830aad05a431d5efc7fd45b19931f7cd0160203392a2005b9051631f2a200560e01b8152fd5b823461014b575f36600319011261014b576020906103856109e9565b9051908152f35b823461014b575f36600319011261014b57602090610385610959565b823461014b575f36600319011261014b57602090515f8152f35b823461014b578060031936011261014b576020916103de6108ba565b90355f525f8352815f209060018060a01b03165f52825260ff815f20541690519015158152f35b823461014b578060031936011261014b5761041e6108d0565b9060249283357faa81ee395afa833565c18c39ee4f0c85fcaf28506ddf41795f434a3494e4a6b894855f526020955f8752845f20335f52875260ff855f205416156105fe575061046c610959565b8083116105e757508351948686019360018060a01b038092169485815284878901524260608901524360808901526080885260a088019088821067ffffffffffffffff8311176105d55760029082895289519020986104ca836108e6565b87835260e060c082019188835201904282528a5f5260038c52858a5f209451166bffffffffffffffffffffffff60a01b8554161784555160018401555191015561051684600254610938565b6002557f00000000000000000000000000000000000000000000000000000000000000009186519263a9059cbb60e01b5f52868352858552895f60448180855af160015f51148116156105b6575b848952156105a5575050505050827f736dbcab892cd3feb98832f3a623f7fd44d2eae9ffcb6dbe3aff894be1a0ac099181519081528587820152a251908152f35b635274afe760e01b84521690820152fd5b60018115166105cc57813b15153d151616610564565b843d5f823e3d90fd5b84604184634e487b7160e01b5f52525ffd5b604494519363e08891b560e01b8552840152820152fd5b9150604493519263e2517d3f60e01b84523390840152820152fd5b823461014b575f36600319011261014b576020906002549051908152f35b823461014b575f36600319011261014b57602090517faa81ee395afa833565c18c39ee4f0c85fcaf28506ddf41795f434a3494e4a6b88152f35b823461014b575f36600319011261014b57517f00000000000000000000000000000000000000000000000000000000000000006001600160a01b03168152602090f35b90503461014b578160031936011261014b57803591602435916106d5610abd565b835f526003602052815f2082516106eb816108e6565b81546001600160a01b0316815260018201546020820181815260029093015491850191909152156107bd576107428430337f0000000000000000000000000000000000000000000000000000000000000000610cf0565b516002549190828111156107b85750815b82039182116107a55750916020917f2668501d3189d43a33cc125ca12cee40d56680775e7e6e306392c3ec0323c0bb93600255845f52600383525f6002828220828155826001820155015551908152a2005b601190634e487b7160e01b5f525260245ffd5b610753565b5083602492519163eaeac67760e01b8352820152fd5b823461014b578060031936011261014b576107ec6108ba565b90336001600160a01b03831603610808575061021c9135610c7e565b5163334bd91960e11b81529050fd5b823461014b578060031936011261014b5761021c913561083a60016102066108ba565b610c08565b823461014b57602036600319011261014b57602091355f525f82526001815f2001549051908152f35b903461014b57602036600319011261014b57359063ffffffff60e01b821680920361014b57602091637965db0b60e01b81149081156108a9575b5015158152f35b6301ffc9a760e01b149050836108a2565b602435906001600160a01b038216820361014b57565b600435906001600160a01b038216820361014b57565b6060810190811067ffffffffffffffff82111761090257604052565b634e487b7160e01b5f52604160045260245ffd5b90601f8019910116810190811067ffffffffffffffff82111761090257604052565b9190820180921161094557565b634e487b7160e01b5f52601160045260245ffd5b6040516370a0823160e01b81523060048201526020816024817f00000000000000000000000000000000000000000000000000000000000000006001600160a01b03165afa9081156109de575f916109af575090565b90506020813d6020116109d6575b816109ca60209383610916565b8101031261014b575190565b3d91506109bd565b6040513d5f823e3d90fd5b6040516370a0823160e01b81523060048201526020816024817f00000000000000000000000000000000000000000000000000000000000000006001600160a01b03165afa80156109de575f90610a4c575b610a49915060025490610938565b90565b506020813d602011610a78575b81610a6660209383610916565b8101031261014b57610a499051610a3b565b3d9150610a59565b610a886109e9565b8015610ab657610a9d610aa291600254610d79565b610e29565b6101f49081018091116109455761ffff1690565b506105dc90565b335f9081527f4abd6400b9997c78d78e9196606d753835c4c9602bd1252eb73eb95abbf1344960205260409020547fa714f487e9b7d04144116bbdc4586ede0e24a8be262414fb23a57f5647adec529060ff1615610b185750565b6044906040519063e2517d3f60e01b82523360048301526024820152fd5b805f525f60205260405f20335f5260205260ff60405f20541615610b185750565b6001600160a01b03165f8181527f505d5918a94e12a56def7c0a853a3f0e85716572f53795f05246ab44f6579ecf60205260409020547faa81ee395afa833565c18c39ee4f0c85fcaf28506ddf41795f434a3494e4a6b8919060ff16610c0257815f525f60205260405f20815f5260205260405f20600160ff1982541617905533917f2f8788117e7eff1d82e926ec794901d17c78024a50270940304540a733656f0d5f80a4600190565b50505f90565b90815f525f60205260405f209060018060a01b031690815f5260205260ff60405f205416155f14610c0257815f525f60205260405f20815f5260205260405f20600160ff1982541617905533917f2f8788117e7eff1d82e926ec794901d17c78024a50270940304540a733656f0d5f80a4600190565b90815f525f60205260405f209060018060a01b031690815f5260205260ff60405f2054165f14610c0257815f525f60205260405f20815f5260205260405f2060ff19815416905533917ff6391f5c32d9c69d2a47ea670b442974b53935d1edc7fd64eb21e047a839171b5f80a4600190565b6040516323b872dd60e01b5f9081526001600160a01b03938416600452938316602452604494909452909160209060648180855af160015f5114811615610d5a575b836040525f60605215610d4457505050565b635274afe760e01b835216600482015260249150fd5b6001811516610d7057813b15153d151616610d32565b833d5f823e3d90fd5b612710915f198383099280830292838086109503948086039514610e075784831115610def5790829109815f038216809204600280826003021880830282030280830282030280830282030280830282030280830282030280920290030293600183805f03040190848311900302920304170290565b82634e487b715f52156003026011186020526024601cfd5b505080925015610e15570490565b634e487b7160e01b5f52601260045260245ffd5b6103e85f1981830981830291828083109203918083039214610e99576127109082821115610e87577fbc01a36e2eb1c432ca57a786c226809d495182a9930be0ded288ce703afb7e91940990828211900360fc1b910360041c170290565b634e487b715f5260116020526024601cfd5b50506127109150049056fea2646970667358221220200b021f2aa538fb71fbed832de0d6653d64ea371dd6e9fb02ec3de9562d53b564736f6c634300081800332f8788117e7eff1d82e926ec794901d17c78024a50270940304540a733656f0dad3228b676f7d3cd4284a5443f17f1962b36e491b30a40b2405849e597ba5fb5000000000000000000000000d9a1048f900e57c0c320ef11effaf725d1a9353f0000000000000000000000002c5bedd15f3d40da729a68d852e4f436da14ef79000000000000000000000000000000000000000000000000000000003b9aca00",
        "nonce": "0xa",
        "chainId": "0x14a34"
      },
      "additionalContracts": [],
      "isFixedGasLimit": false
    },
    {
      "hash": "0x1e66e6fbc8d2b147aedf9bf8b024a6651d2d6605c63f74578a52bf33ee70a315",
      "transactionType": "CREATE",
      "contractName": "ElasticLiquidationEngine",
      "contractAddress": "0x824d335886e8c516a121e2df59104f04cabae30b",
      "function": null,
      "arguments": [
        "0xD9a1048f900E57C0C320eF11eFfAF725d1a9353f",
        "0x412F577B7E4F8ac392BA9D8876d7A17e4891F6AB",
        "0x15880a9E1719AAd5a37C99203c51C2E445651c94",
        "0x2716c3E427B33c78d01e06a5Ba19A673EB5d898b"
      ],
      "transaction": {
        "from": "0xd9a1048f900e57c0c320ef11effaf725d1a9353f",
        "gas": "0x1c73d2",
        "value": "0x0",
        "input": "0x6080346200011257601f620018d038819003918201601f19168301916001600160401b03831184841017620001165780849260809460405283398101031262000112576200004d816200012a565b906200005c602082016200012a565b91620000d06200007d606062000075604086016200012a565b94016200012a565b60017f9b779b17422d0df92223018b32b4d1fa46e071723d6817e2486d003becc55f00556003805465ffffffffffff60a01b1916647d003e827160a31b17905591620000c9816200013f565b50620001af565b5060018060a01b0380928160018060a01b0319951685600154161760015516836002541617600255169060035416176003556040516116409081620002508239f35b5f80fd5b634e487b7160e01b5f52604160045260245ffd5b51906001600160a01b03821682036200011257565b6001600160a01b03165f8181525f80516020620018b0833981519152602052604090205460ff16620001aa575f8181525f80516020620018b083398151915260205260408120805460ff191660011790553391905f80516020620018908339815191528180a4600190565b505f90565b6001600160a01b03165f8181527f34053938fda0d33c103298082f0dd46df4849c7945d26a27d70e831b53603c7360205260409020547f151ff8b4d0da3f5c5fabf30466470e82bc2019e5d78c902a7dc3f2aa4c0bdbcc919060ff166200024957815f525f60205260405f20815f5260205260405f20600160ff1982541617905533915f80516020620018908339815191525f80a4600190565b50505f9056fe6080604081815260049081361015610015575f80fd5b5f9260e05f35811c91826301ffc9a71461107557508163042e02cf14610f8157816307dc8c3014610f4757816311299f1114610f2257816323be345c14610efa578163248a9ca314610ed05781632db387bd14610ea05781632f2ff15d14610e6657816336568abe14610e1f57816351cbb49814610ddd578163525246c714610d7e5781635b0f580414610d595781635e625d5314610724575080638200bfe6146106fb57806391d14854146106b8578063955edf7e1461026f578063a1ceb55f14610249578063a217fddf1461022e578063a59a997314610205578063bdab52e41461014a5763d547741f1461010a575f80fd5b34610146578060031936011261014657610142913561013d600161012c6110dd565b938387528660205286200154611326565b6113c3565b5080f35b8280fd5b50823461020257602092836003193601126101fe57836101686110c7565b600154855163e65896c960e01b81526001600160a01b039283169481019490945283916024918391165afa9182156101f357916101c0575b506101b86127109161ffff60035460a01c169061114e565b049051908152f35b90508281813d83116101ec575b6101d7818361112c565b810103126101e857516101b86101a0565b5f80fd5b503d6101cd565b8351903d90823e3d90fd5b5080fd5b80fd5b8382346101fe57816003193601126101fe5760015490516001600160a01b039091168152602090f35b8382346101fe57816003193601126101fe5751908152602090f35b8382346101fe57816003193601126101fe5760209061ffff60035460b01c169051908152f35b5034610146576060366003190112610146576102896110c7565b916024928335926044359460018060a01b03938487168097036101e8576102ae611435565b85156106aa57846001541694835194624c441360e41b865281811696878488015260209687818781855afa908115610627578c9161067d575b5086516377c6cadf60e01b815288818781865afa908115610673578d91610646575b508110156106315750855163e65896c960e01b815284810189905287818781855afa908115610627578c916105fa575b50612710908161035461ffff928360035460a01c169061114e565b04808c116105df57506002548851631a8e8f8b60e01b81528088018c90528089018e90528e98979695949392918b90829060449082908a165afa9889156105d457986105a5575b508715610595579189916103c88f98979695948e906103c16103bc88611182565b611299565b169061114e565b049780891161058d575b5088516338d52e0f60e01b815291908290869082905afa801561058357838c918890610549575b61041693501661040b82303384611477565b846001541690611500565b8160015416803b1561054557875163bcbaf48760e01b81526001600160a01b03909216848301908152602081018c90528691839182908490829060400103925af1801561053b57908591610527575b50506002541690813b1561052357608488918580948d8a519788968795633eafdd6360e01b87528601528401528860448401523360648401525af1801561051957610501575b50507feda8e8aeccb7548ca0245ef24bab2d0e7343382a7fa40510c2a4fcb6a96267539282519586528501523393a460017f9b779b17422d0df92223018b32b4d1fa46e071723d6817e2486d003becc55f005580f35b61050a90611104565b61051557865f6104ab565b8680fd5b84513d84823e3d90fd5b8380fd5b61053090611104565b61052357835f610465565b87513d87823e3d90fd5b8580fd5b5050508881813d831161057c575b610561818361112c565b81010312610545578a8361057761041693611276565b6103f9565b503d610557565b88513d88823e3d90fd5b9750846103d2565b88516301f3389b60e71b81528690fd5b9097508981813d83116105cd575b6105bd818361112c565b810103126101e85751965f61039b565b503d6105b3565b8a51903d90823e3d90fd5b86604491898e8c5193633378fadd60e01b8552840152820152fd5b90508781813d8311610620575b610611818361112c565b810103126101e857515f610339565b503d610607565b87513d8e823e3d90fd5b86516301e11b9d60e11b815294850152505050fd5b90508881813d831161066c575b61065d818361112c565b810103126101e857515f610309565b503d610653565b88513d8f823e3d90fd5b90508781813d83116106a3575b610694818361112c565b810103126101e857515f6102e7565b503d61068a565b8251631f2a200560e01b8152fd5b509034610146578160031936011261014657816020936106d66110dd565b92358152808552209060018060a01b03165f52825260ff815f20541690519015158152f35b8382346101fe57816003193601126101fe5760035490516001600160a01b039091168152602090f35b84848492346101e85760603660031901126101e8576107416110c7565b90602494853560443594610753611435565b81156106aa576001548351624c441360e41b81526001600160a01b03878116828501819052976020949391929183169185818e81865afa908115610cdc575f91610d2c575b5087516377c6cadf60e01b815286818781875afa908115610af657908e949392915f91610cfb575b50811015610ce65750858851809463e65896c960e01b82528c8883015281855afa918215610cdc575f92610cab575b61080f9350600354998a9361271095869161ffff809760a01c169061114e565b04808a11610c8f575080610855918e8c868b8b6002541692519687948593849363f589df1760e01b8552840160209093929193604081019460018060a01b031681520152565b03915afa908115610bc9575f91610be3575b5060a0915001998a5115610bd35785168951633900820160e21b815288818981855afa908115610bc9575f91610b93575b5015610b8357908787959493928b5196878092633ec007a160e21b82525afa948515610b3a575f95610b4c575b50836108db846108d488611299565b168b61114e565b049a51808c11610b44575b508787918b51928380926338d52e0f60e01b82525afa8015610b3a57868a915f90610b00575b61092993501661091e82303384611477565b876001541690611500565b8460015416803b156101e857895163bcbaf48760e01b81526001600160a01b03909216828801908152602081018a90525f91839182908490829060400103925af18015610af657610ad5575b506109ca8c9d9492936109a08e9c9d9e97956109998a95876003541694168c61114e565b048a611175565b8a5163487bd83360e11b81523387820190815260208101929092529c8d9384928391604090910190565b03925af1988915610acb578499610a9c575b506002541690813b156105235760648a918580948e8b519788968795630593794b60e41b87528601528401528b60448401525af18015610a9257610a7a575b5050825196875286015284015260608301527ff7f2ffd2d0e92c428ad492c48c264b3f91d9a051d925507e4f2f1372a5b33b3660803393a360017f9b779b17422d0df92223018b32b4d1fa46e071723d6817e2486d003becc55f005580f35b610a8390611104565b610a8e578789610a1b565b8780fd5b85513d84823e3d90fd5b9098508481813d8311610ac4575b610ab4818361112c565b810103126105235751978c6109dc565b503d610aaa565b87513d86823e3d90fd5b610ae7919d949295939a9b9c50611104565b919a5f9a999891939085610975565b89513d5f823e3d90fd5b5050508781813d8311610b33575b610b18818361112c565b810103126101e8578886610b2e61092993611276565b61090c565b503d610b0e565b8a513d5f823e3d90fd5b9a50876108e6565b9094508781813d8311610b7c575b610b64818361112c565b810103126101e857610b759061128a565b938f6108c5565b503d610b5a565b8951636544e98160e11b81528790fd5b90508881813d8311610bc2575b610baa818361112c565b810103126101e8575180151581036101e8575f610898565b503d610ba0565b8b513d5f823e3d90fd5b89516301f3389b60e71b81528790fd5b80915082813d8311610c88575b610bfa818361112c565b810103126101e8578a5190810181811067ffffffffffffffff821117610c75578b5281518152610c2b898301611276565b898201528a8201518b8201526060820151888110156101e85760a09260c0916060840152610c5b6080820161128a565b60808401528381015184840152015160c08201525f610867565b508f604189634e487b7160e01b5f52525ffd5b503d610bf0565b8f60449189918c8e5193633378fadd60e01b8552840152820152fd5b91508583813d8311610cd5575b610cc2818361112c565b810103126101e85761080f9251916107ef565b503d610cb8565b88513d5f823e3d90fd5b8584918a51916301e11b9d60e11b8352820152fd5b809550888092503d8311610d25575b610d14818361112c565b810103126101e8578d93518f6107c0565b503d610d0a565b90508581813d8311610d52575b610d43818361112c565b810103126101e857518d610798565b503d610d39565b82346101e8575f3660031901126101e85760209061ffff60035460c01c169051908152f35b82346101e8573660031901126101e857610d966110f3565b60243561ffff811681036101e857610dac6112ad565b6003805463ffffffff60b01b191660b09390931b61ffff60b01b169290921760c09190911b61ffff60c01b16179055005b346101e85760203660031901126101e857610df66110f3565b610dfe6112ad565b6003805461ffff60a01b191660a09290921b61ffff60a01b16919091179055005b5050346101e857806003193601126101e857610e396110dd565b90336001600160a01b03831603610e575750610e5591356113c3565b005b5163334bd91960e11b81529050fd5b5050346101e857806003193601126101e857610e559135610e9b6001610e8a6110dd565b93835f525f6020525f200154611326565b611347565b82346101e85760203660031901126101e85760209061ffff610ec8610ec36110c7565b611182565b915191168152f35b5050346101e85760203660031901126101e857602091355f525f82526001815f2001549051908152f35b82346101e8575f3660031901126101e85760025490516001600160a01b039091168152602090f35b82346101e8575f3660031901126101e85760209061ffff60035460a01c169051908152f35b82346101e8575f3660031901126101e857602090517f151ff8b4d0da3f5c5fabf30466470e82bc2019e5d78c902a7dc3f2aa4c0bdbcc8152f35b5050346101e857602091826003193601126101e857610f9e6110c7565b6001548351624c441360e41b81526001600160a01b03928316848201529391168484602481845afa93841561106b579085915f9561103a575b5082516377c6cadf60e01b815293849182905afa918215611030575f92611001575b505191108152f35b9091508381813d8311611029575b611019818361112c565b810103126101e857519084610ff9565b503d61100f565b50513d5f823e3d90fd5b8281939296503d8311611064575b611052818361112c565b810103126101e8578490519386610fd7565b503d611048565b82513d5f823e3d90fd5b84346101e85760203660031901126101e857359063ffffffff60e01b82168092036101e857602091637965db0b60e01b81149081156110b6575b5015158152f35b6301ffc9a760e01b149050836110af565b600435906001600160a01b03821682036101e857565b602435906001600160a01b03821682036101e857565b6004359061ffff821682036101e857565b67ffffffffffffffff811161111857604052565b634e487b7160e01b5f52604160045260245ffd5b90601f8019910116810190811067ffffffffffffffff82111761111857604052565b8181029291811591840414171561116157565b634e487b7160e01b5f52601160045260245ffd5b9190820180921161116157565b60025460405163eca66b1760e01b81526001600160a01b0392831660048201529160209183916024918391165afa90811561126b575f91611239575b506109c481111561122b5761271081101561121d5760035461ffff916109c31981019160b081901c84169183116111615783829160c01c16039183831161116157611212611d4c918561121995169061114e565b0490611175565b1690565b5061ffff60035460c01c1690565b5061ffff60035460b01c1690565b90506020813d602011611263575b816112546020938361112c565b810103126101e857515f6111be565b3d9150611247565b6040513d5f823e3d90fd5b51906001600160a01b03821682036101e857565b519061ffff821682036101e857565b9061ffff8092166127100191821161116157565b335f9081527f34053938fda0d33c103298082f0dd46df4849c7945d26a27d70e831b53603c7360205260409020547f151ff8b4d0da3f5c5fabf30466470e82bc2019e5d78c902a7dc3f2aa4c0bdbcc9060ff16156113085750565b6044906040519063e2517d3f60e01b82523360048301526024820152fd5b805f525f60205260405f20335f5260205260ff60405f205416156113085750565b90815f525f60205260405f209060018060a01b031690815f5260205260ff60405f205416155f146113bd57815f525f60205260405f20815f5260205260405f20600160ff1982541617905533917f2f8788117e7eff1d82e926ec794901d17c78024a50270940304540a733656f0d5f80a4600190565b50505f90565b90815f525f60205260405f209060018060a01b031690815f5260205260ff60405f2054165f146113bd57815f525f60205260405f20815f5260205260405f2060ff19815416905533917ff6391f5c32d9c69d2a47ea670b442974b53935d1edc7fd64eb21e047a839171b5f80a4600190565b7f9b779b17422d0df92223018b32b4d1fa46e071723d6817e2486d003becc55f0060028154146114655760029055565b604051633ee5aeb560e01b8152600490fd5b6040516323b872dd60e01b5f9081526001600160a01b03938416600452938316602452604494909452909160209060648180855af160015f51148116156114e1575b836040525f606052156114cb57505050565b635274afe760e01b835216600482015260249150fd5b60018115166114f757813b15153d1516166114b9565b833d5f823e3d90fd5b60405163095ea7b360e01b5f8181526001600160a01b03948516600481905260248790529195929060209060448180885af160015f51148116156115fd575b8160405215611551575b505050505050565b855f52816004525f60245260205f60448180885af160015f51148116156115de575b81604052156115c75750604051945f5260045260245260205f60448180855af160015f51148116156115b1575b83604052156114cb57808080611549565b60018115166114f757813b15153d1516166115a0565b635274afe760e01b81528385166004820152602490fd5b60018115166115f457843b15153d151616611573565b503d5f823e3d90fd5b843b15153d15161661153f56fea264697066735822122086a8a11bd4902b06e9d88855135ed93f1c70a4d850946fcb34802a0f32be2c5564736f6c634300081800332f8788117e7eff1d82e926ec794901d17c78024a50270940304540a733656f0dad3228b676f7d3cd4284a5443f17f1962b36e491b30a40b2405849e597ba5fb5000000000000000000000000d9a1048f900e57c0c320ef11effaf725d1a9353f000000000000000000000000412f577b7e4f8ac392ba9d8876d7a17e4891f6ab00000000000000000000000015880a9e1719aad5a37c99203c51c2e445651c940000000000000000000000002716c3e427b33c78d01e06a5ba19a673eb5d898b",
        "nonce": "0xb",
        "chainId": "0x14a34"
      },
      "additionalContracts": [],
      "isFixedGasLimit": false
    },
    {
      "hash": "0xa2596e121ba6c73ef8b8d20e783776f95a53a7dd85ff0ca6ea1c30f46cb5e12a",
      "transactionType": "CALL",
      "contractName": "ElasticCollateralManager",
      "contractAddress": "0x15880a9e1719aad5a37c99203c51c2e445651c94",
      "function": "setLiquidationEngine(address)",
      "arguments": [
        "0x824d335886E8c516a121E2df59104F04cABAe30b"
      ],
      "transaction": {
        "from": "0xd9a1048f900e57c0c320ef11effaf725d1a9353f",
        "to": "0x15880a9e1719aad5a37c99203c51c2e445651c94",
        "gas": "0x10917",
        "value": "0x0",
        "input": "0x4d298abd000000000000000000000000824d335886e8c516a121e2df59104f04cabae30b",
        "nonce": "0xc",
        "chainId": "0x14a34"
      },
      "additionalContracts": [],
      "isFixedGasLimit": false
    },
    {
      "hash": "0x4e11d9131171a50f51bb26f13ae40b6b5ffba6fcc6b521f02d12d83fe6e09015",
      "transactionType": "CALL",
      "contractName": "ElasticCollateralManager",
      "contractAddress": "0x15880a9e1719aad5a37c99203c51c2e445651c94",
      "function": "setLendingPool(address)",
      "arguments": [
        "0x412F577B7E4F8ac392BA9D8876d7A17e4891F6AB"
      ],
      "transaction": {
        "from": "0xd9a1048f900e57c0c320ef11effaf725d1a9353f",
        "to": "0x15880a9e1719aad5a37c99203c51c2e445651c94",
        "gas": "0xf8b3",
        "value": "0x0",
        "input": "0x113aa8b1000000000000000000000000412f577b7e4f8ac392ba9d8876d7a17e4891f6ab",
        "nonce": "0xd",
        "chainId": "0x14a34"
      },
      "additionalContracts": [],
      "isFixedGasLimit": false
    },
    {
      "hash": "0x3b92fc069e9be255359e69f1f4ec78e8f2612f83c20a631ff9ae09659ea4f498",
      "transactionType": "CALL",
      "contractName": "BackstopPool",
      "contractAddress": "0x2716c3e427b33c78d01e06a5ba19a673eb5d898b",
      "function": "grantLiquidationEngine(address)",
      "arguments": [
        "0x824d335886E8c516a121E2df59104F04cABAe30b"
      ],
      "transaction": {
        "from": "0xd9a1048f900e57c0c320ef11effaf725d1a9353f",
        "to": "0x2716c3e427b33c78d01e06a5ba19a673eb5d898b",
        "gas": "0x10660",
        "value": "0x0",
        "input": "0xc8123acd000000000000000000000000824d335886e8c516a121e2df59104f04cabae30b",
        "nonce": "0xe",
        "chainId": "0x14a34"
      },
      "additionalContracts": [],
      "isFixedGasLimit": false
    },
    {
      "hash": "0x35bc51e66dfacd042012ea3ccfa80ba15556f404ee9bdc8d497ffa03750a3f10",
      "transactionType": "CALL",
      "contractName": "ElasticLendingPool",
      "contractAddress": "0x412f577b7e4f8ac392ba9d8876d7a17e4891f6ab",
      "function": "grantRole(bytes32,address)",
      "arguments": [
        "0x5e17fc5225d4a099df75359ce1f405503ca79498a8dc46a7d583235a0ee45c16",
        "0x824d335886E8c516a121E2df59104F04cABAe30b"
      ],
      "transaction": {
        "from": "0xd9a1048f900e57c0c320ef11effaf725d1a9353f",
        "to": "0x412f577b7e4f8ac392ba9d8876d7a17e4891f6ab",
        "gas": "0x1251a",
        "value": "0x0",
        "input": "0x2f2ff15d5e17fc5225d4a099df75359ce1f405503ca79498a8dc46a7d583235a0ee45c16000000000000000000000000824d335886e8c516a121e2df59104f04cabae30b",
        "nonce": "0xf",
        "chainId": "0x14a34"
      },
      "additionalContracts": [],
      "isFixedGasLimit": false
    },
    {
      "hash": "0x02e3000d1ad17b0023856fc03d58fd5263bf2562be88f4912c2f45c7ddb20b5e",
      "transactionType": "CALL",
      "contractName": "ElasticCollateralManager",
      "contractAddress": "0x15880a9e1719aad5a37c99203c51c2e445651c94",
      "function": "addToken(address,uint8,uint16,uint16,address,uint8)",
      "arguments": [
        "0x2C5Bedd15f3d40Da729A68D852E4f436dA14ef79",
        "2",
        "500",
        "8500",
        "0x0000000000000000000000000000000000000000",
        "6"
      ],
      "transaction": {
        "from": "0xd9a1048f900e57c0c320ef11effaf725d1a9353f",
        "to": "0x15880a9e1719aad5a37c99203c51c2e445651c94",
        "gas": "0x27524",
        "value": "0x0",
        "input": "0x38ed11a50000000000000000000000002c5bedd15f3d40da729a68d852e4f436da14ef79000000000000000000000000000000000000000000000000000000000000000200000000000000000000000000000000000000000000000000000000000001f4000000000000000000000000000000000000000000000000000000000000213400000000000000000000000000000000000000000000000000000000000000000000000000000000000000000000000000000000000000000000000000000006",
        "nonce": "0x10",
        "chainId": "0x14a34"
      },
      "additionalContracts": [],
      "isFixedGasLimit": false
    },
    {
      "hash": "0xec443d1d70b5593080093fcd6b8753a823eac1c8bb3cf9abbf7f677495a92267",
      "transactionType": "CALL",
      "contractName": "ElasticCollateralManager",
      "contractAddress": "0x15880a9e1719aad5a37c99203c51c2e445651c94",
      "function": "addToken(address,uint8,uint16,uint16,address,uint8)",
      "arguments": [
        "0x83388045cab4caDc82ACfa99a63b17E6d4E5Cc87",
        "0",
        "5000",
        "7500",
        "0x55Bd48C34441FEdA5c0D45a2400976fB933Abb7e",
        "18"
      ],
      "transaction": {
        "from": "0xd9a1048f900e57c0c320ef11effaf725d1a9353f",
        "to": "0x15880a9e1719aad5a37c99203c51c2e445651c94",
        "gas": "0x21a1d",
        "value": "0x0",
        "input": "0x38ed11a500000000000000000000000083388045cab4cadc82acfa99a63b17e6d4e5cc87000000000000000000000000000000000000000000000000000000000000000000000000000000000000000000000000000000000000000000000000000013880000000000000000000000000000000000000000000000000000000000001d4c00000000000000000000000055bd48c34441feda5c0d45a2400976fb933abb7e0000000000000000000000000000000000000000000000000000000000000012",
        "nonce": "0x11",
        "chainId": "0x14a34"
      },
      "additionalContracts": [],
      "isFixedGasLimit": false
    },
    {
      "hash": "0x647e18dd66ce914636e7d3e9071a7201e10f7600d7e5de1724cd42ed234bdd9c",
      "transactionType": "CALL",
      "contractName": "ElasticCollateralManager",
      "contractAddress": "0x15880a9e1719aad5a37c99203c51c2e445651c94",
      "function": "addToken(address,uint8,uint16,uint16,address,uint8)",
      "arguments": [
        "0xb4A47F5D656C177be6cF4839551217f44cbb2Cb5",
        "1",
        "4500",
        "7000",
        "0xD916970FE36541A0a71Db13415CfFBFF005e761e",
        "8"
      ],
      "transaction": {
        "from": "0xd9a1048f900e57c0c320ef11effaf725d1a9353f",
        "to": "0x15880a9e1719aad5a37c99203c51c2e445651c94",
        "gas": "0x21a1d",
        "value": "0x0",
        "input": "0x38ed11a5000000000000000000000000b4a47f5d656c177be6cf4839551217f44cbb2cb5000000000000000000000000000000000000000000000000000000000000000100000000000000000000000000000000000000000000000000000000000011940000000000000000000000000000000000000000000000000000000000001b58000000000000000000000000d916970fe36541a0a71db13415cffbff005e761e0000000000000000000000000000000000000000000000000000000000000008",
        "nonce": "0x12",
        "chainId": "0x14a34"
      },
      "additionalContracts": [],
      "isFixedGasLimit": false
    },
    {
      "hash": "0xd8931ef3c719cfbde0c9edef2374a63594f3868a06349ce829846d09e464dc3f",
      "transactionType": "CALL",
      "contractName": "ElasticCollateralManager",
      "contractAddress": "0x15880a9e1719aad5a37c99203c51c2e445651c94",
      "function": "addToken(address,uint8,uint16,uint16,address,uint8)",
      "arguments": [
        "0xcC86944f5E7385cA6Df8EEC5d40957840cfdfbb2",
        "3",
        "6000",
        "6500",
        "0xdC74e032653B3a593ed6B8D2Bea2acd16965C28B",
        "18"
      ],
      "transaction": {
        "from": "0xd9a1048f900e57c0c320ef11effaf725d1a9353f",
        "to": "0x15880a9e1719aad5a37c99203c51c2e445651c94",
        "gas": "0x239d6",
        "value": "0x0",
        "input": "0x38ed11a5000000000000000000000000cc86944f5e7385ca6df8eec5d40957840cfdfbb2000000000000000000000000000000000000000000000000000000000000000300000000000000000000000000000000000000000000000000000000000017700000000000000000000000000000000000000000000000000000000000001964000000000000000000000000dc74e032653b3a593ed6b8d2bea2acd16965c28b0000000000000000000000000000000000000000000000000000000000000012",
        "nonce": "0x13",
        "chainId": "0x14a34"
      },
      "additionalContracts": [],
      "isFixedGasLimit": false
    },
    {
      "hash": "0xfb0eb9c22345811dd9ad44a00f7166f1627db01fdc735dba090bfe4d4ac2b99e",
      "transactionType": "CALL",
      "contractName": "MockERC20",
      "contractAddress": "0x2c5bedd15f3d40da729a68d852e4f436da14ef79",
      "function": "mint(address,uint256)",
      "arguments": [
        "0xD9a1048f900E57C0C320eF11eFfAF725d1a9353f",
        "1000000000000"
      ],
      "transaction": {
        "from": "0xd9a1048f900e57c0c320ef11effaf725d1a9353f",
        "to": "0x2c5bedd15f3d40da729a68d852e4f436da14ef79",
        "gas": "0x16f69",
        "value": "0x0",
        "input": "0x40c10f19000000000000000000000000d9a1048f900e57c0c320ef11effaf725d1a9353f000000000000000000000000000000000000000000000000000000e8d4a51000",
        "nonce": "0x14",
        "chainId": "0x14a34"
      },
      "additionalContracts": [],
      "isFixedGasLimit": false
    },
    {
      "hash": "0x69634fc498a1a8aae7caf34e7292c61a1a6f015270a1889e4ae8dd3546dd6e99",
      "transactionType": "CALL",
      "contractName": "MockERC20",
      "contractAddress": "0x2c5bedd15f3d40da729a68d852e4f436da14ef79",
      "function": "approve(address,uint256)",
      "arguments": [
        "0x412F577B7E4F8ac392BA9D8876d7A17e4891F6AB",
        "115792089237316195423570985008687907853269984665640564039457584007913129639935"
      ],
      "transaction": {
        "from": "0xd9a1048f900e57c0c320ef11effaf725d1a9353f",
        "to": "0x2c5bedd15f3d40da729a68d852e4f436da14ef79",
        "gas": "0x10868",
        "value": "0x0",
        "input": "0x095ea7b3000000000000000000000000412f577b7e4f8ac392ba9d8876d7a17e4891f6abffffffffffffffffffffffffffffffffffffffffffffffffffffffffffffffff",
        "nonce": "0x15",
        "chainId": "0x14a34"
      },
      "additionalContracts": [],
      "isFixedGasLimit": false
    },
    {
      "hash": "0xedfefb2bb6f5bba0e138e04dfc9c265f9454d01fb771da09857ccba31fff8a75",
      "transactionType": "CALL",
      "contractName": "ElasticLendingPool",
      "contractAddress": "0x412f577b7e4f8ac392ba9d8876d7a17e4891f6ab",
      "function": "deposit(uint256,address)",
      "arguments": [
        "500000000000",
        "0xD9a1048f900E57C0C320eF11eFfAF725d1a9353f"
      ],
      "transaction": {
        "from": "0xd9a1048f900e57c0c320ef11effaf725d1a9353f",
        "to": "0x412f577b7e4f8ac392ba9d8876d7a17e4891f6ab",
        "gas": "0x26e1d",
        "value": "0x0",
        "input": "0x6e553f65000000000000000000000000000000000000000000000000000000746a528800000000000000000000000000d9a1048f900e57c0c320ef11effaf725d1a9353f",
        "nonce": "0x16",
        "chainId": "0x14a34"
      },
      "additionalContracts": [],
      "isFixedGasLimit": false
    },
    {
      "hash": "0x2223f42d20e9fe82355c67e8c520c53b77c25cc71134e3c279a2b0bb4bf57df6",
      "transactionType": "CALL",
      "contractName": "MockERC20",
      "contractAddress": "0x2c5bedd15f3d40da729a68d852e4f436da14ef79",
      "function": "approve(address,uint256)",
      "arguments": [
        "0x2716c3E427B33c78d01e06a5Ba19A673EB5d898b",
        "115792089237316195423570985008687907853269984665640564039457584007913129639935"
      ],
      "transaction": {
        "from": "0xd9a1048f900e57c0c320ef11effaf725d1a9353f",
        "to": "0x2c5bedd15f3d40da729a68d852e4f436da14ef79",
        "gas": "0x10868",
        "value": "0x0",
        "input": "0x095ea7b30000000000000000000000002716c3e427b33c78d01e06a5ba19a673eb5d898bffffffffffffffffffffffffffffffffffffffffffffffffffffffffffffffff",
        "nonce": "0x17",
        "chainId": "0x14a34"
      },
      "additionalContracts": [],
      "isFixedGasLimit": false
    },
    {
      "hash": "0xb571edaaa86183bb1d372ed6b613c743fb535b79fa2fb7144f815c393df7bfef",
      "transactionType": "CALL",
      "contractName": "BackstopPool",
      "contractAddress": "0x2716c3e427b33c78d01e06a5ba19a673eb5d898b",
      "function": "deposit(uint256)",
      "arguments": [
        "50000000000"
      ],
      "transaction": {
        "from": "0xd9a1048f900e57c0c320ef11effaf725d1a9353f",
        "to": "0x2716c3e427b33c78d01e06a5ba19a673eb5d898b",
        "gas": "0x137e7",
        "value": "0x0",
        "input": "0xb6b55f250000000000000000000000000000000000000000000000000000000ba43b7400",
        "nonce": "0x18",
        "chainId": "0x14a34"
      },
      "additionalContracts": [],
      "isFixedGasLimit": false
    },
    {
      "hash": "0x32e0ed272e7d1c0d4cce5202ae91f152de0cfe82859808c3916b464f18eb5865",
      "transactionType": "CALL",
      "contractName": "MockERC20",
      "contractAddress": "0x83388045cab4cadc82acfa99a63b17e6d4e5cc87",
      "function": "mint(address,uint256)",
      "arguments": [
        "0xD9a1048f900E57C0C320eF11eFfAF725d1a9353f",
        "100000000000000000000"
      ],
      "transaction": {
        "from": "0xd9a1048f900e57c0c320ef11effaf725d1a9353f",
        "to": "0x83388045cab4cadc82acfa99a63b17e6d4e5cc87",
        "gas": "0x16f9b",
        "value": "0x0",
        "input": "0x40c10f19000000000000000000000000d9a1048f900e57c0c320ef11effaf725d1a9353f0000000000000000000000000000000000000000000000056bc75e2d63100000",
        "nonce": "0x19",
        "chainId": "0x14a34"
      },
      "additionalContracts": [],
      "isFixedGasLimit": false
    },
    {
      "hash": "0x9ba93e0fdc6144b658980a224fed538af8cb385b4a784dc7b4817059062964e4",
      "transactionType": "CALL",
      "contractName": "MockERC20",
      "contractAddress": "0xb4a47f5d656c177be6cf4839551217f44cbb2cb5",
      "function": "mint(address,uint256)",
      "arguments": [
        "0xD9a1048f900E57C0C320eF11eFfAF725d1a9353f",
        "200000000"
      ],
      "transaction": {
        "from": "0xd9a1048f900e57c0c320ef11effaf725d1a9353f",
        "to": "0xb4a47f5d656c177be6cf4839551217f44cbb2cb5",
        "gas": "0x16f58",
        "value": "0x0",
        "input": "0x40c10f19000000000000000000000000d9a1048f900e57c0c320ef11effaf725d1a9353f000000000000000000000000000000000000000000000000000000000bebc200",
        "nonce": "0x1a",
        "chainId": "0x14a34"
      },
      "additionalContracts": [],
      "isFixedGasLimit": false
    },
    {
      "hash": "0xaa77aca58a747dbb0b09a98ea2f7fae86b416a902c3b74f5f5531ff340d8dcc5",
      "transactionType": "CALL",
      "contractName": "MockERC20",
      "contractAddress": "0xcc86944f5e7385ca6df8eec5d40957840cfdfbb2",
      "function": "mint(address,uint256)",
      "arguments": [
        "0xD9a1048f900E57C0C320eF11eFfAF725d1a9353f",
        "10000000000000000000000"
      ],
      "transaction": {
        "from": "0xd9a1048f900e57c0c320ef11effaf725d1a9353f",
        "to": "0xcc86944f5e7385ca6df8eec5d40957840cfdfbb2",
        "gas": "0x16fab",
        "value": "0x0",
        "input": "0x40c10f19000000000000000000000000d9a1048f900e57c0c320ef11effaf725d1a9353f00000000000000000000000000000000000000000000021e19e0c9bab2400000",
        "nonce": "0x1b",
        "chainId": "0x14a34"
      },
      "additionalContracts": [],
      "isFixedGasLimit": false
    }
  ],
  "receipts": [
    {
      "status": "0x1",
      "cumulativeGasUsed": "0x2e71c0",
      "logs": [],
      "logsBloom": "0x00000000000000000000000000000000000000000000000000000000000000000000000000000000000000000000000000000000000000000000000000000000000000000000000000000000000000000000000000000000000000000000000000000000000000000000000000000000000000000000000000000000000000000000000000000000000000000000000000000000000000000000000000000000000000000000000000000000000000000000000000000000000000000000000000000000000000000000000000000000000000000000000000000000000000000000000000000000000000000000000000000000000000000000000000000000",
      "type": "0x0",
      "transactionHash": "0xaeab6e59336b4786579e78ed90f694ce9a03cee9225c6c8afde170b566227972",
      "transactionIndex": "0x8",
      "blockHash": "0xc043338e9e531c64b6bce82770a6741e2eddcce07f7a56a2b38f4f1fb7d0bc0e",
      "blockNumber": "0x255fe2a",
      "gasUsed": "0x82e48",
      "effectiveGasPrice": "0x5b8d80",
      "blobGasUsed": "0x0",
      "from": "0xd9a1048f900e57c0c320ef11effaf725d1a9353f",
      "to": null,
      "contractAddress": null,
      "l1BaseFeeScalar": "0x44d",
      "l1BlobBaseFee": "0x1",
      "l1BlobBaseFeeScalar": "0xa118b",
      "l1Fee": "0x6f9",
      "l1GasPrice": "0x10",
      "l1GasUsed": "0x7686"
    },
    {
      "status": "0x1",
      "cumulativeGasUsed": "0xbd50b7",
      "logs": [],
      "logsBloom": "0x00000000000000000000000000000000000000000000000000000000000000000000000000000000000000000000000000000000000000000000000000000000000000000000000000000000000000000000000000000000000000000000000000000000000000000000000000000000000000000000000000000000000000000000000000000000000000000000000000000000000000000000000000000000000000000000000000000000000000000000000000000000000000000000000000000000000000000000000000000000000000000000000000000000000000000000000000000000000000000000000000000000000000000000000000000000",
      "type": "0x0",
      "transactionHash": "0x7e2b6997c731a67fb82cbd28b359257ef7e977307d186a305b76165db41dcdfd",
      "transactionIndex": "0x29",
      "blockHash": "0xb594c6fd8591d122c04a33560082d4159167037a8ae63c6821707ae7f8465645",
      "blockNumber": "0x255fe2b",
      "gasUsed": "0x82e6c",
      "effectiveGasPrice": "0x5b8d80",
      "blobGasUsed": "0x0",
      "from": "0xd9a1048f900e57c0c320ef11effaf725d1a9353f",
      "to": null,
      "contractAddress": null,
      "l1BaseFeeScalar": "0x44d",
      "l1BlobBaseFee": "0x1",
      "l1BlobBaseFeeScalar": "0xa118b",
      "l1Fee": "0x6f9",
      "l1GasPrice": "0x10",
      "l1GasUsed": "0x7686"
    },
    {
      "status": "0x1",
      "cumulativeGasUsed": "0xa4f63b",
      "logs": [],
      "logsBloom": "0x00000000000000000000000000000000000000000000000000000000000000000000000000000000000000000000000000000000000000000000000000000000000000000000000000000000000000000000000000000000000000000000000000000000000000000000000000000000000000000000000000000000000000000000000000000000000000000000000000000000000000000000000000000000000000000000000000000000000000000000000000000000000000000000000000000000000000000000000000000000000000000000000000000000000000000000000000000000000000000000000000000000000000000000000000000000",
      "type": "0x0",
      "transactionHash": "0xf6bd872d1c3ad67070d334c2c0af8bbb17f09d40a49012bf4c45650a0fb3b1db",
      "transactionIndex": "0x38",
      "blockHash": "0x8e43396563c13898523df8125c0f9cdaf9542e15756a93e9849fcfc91768498c",
      "blockNumber": "0x255fe2c",
      "gasUsed": "0x82e6c",
      "effectiveGasPrice": "0x5b8d80",
      "blobGasUsed": "0x0",
      "from": "0xd9a1048f900e57c0c320ef11effaf725d1a9353f",
      "to": null,
      "contractAddress": null,
      "l1BaseFeeScalar": "0x44d",
      "l1BlobBaseFee": "0x1",
      "l1BlobBaseFeeScalar": "0xa118b",
      "l1Fee": "0x6f9",
      "l1GasPrice": "0x10",
      "l1GasUsed": "0x7686"
    },
    {
      "status": "0x1",
      "cumulativeGasUsed": "0x4040a4",
      "logs": [],
      "logsBloom": "0x00000000000000000000000000000000000000000000000000000000000000000000000000000000000000000000000000000000000000000000000000000000000000000000000000000000000000000000000000000000000000000000000000000000000000000000000000000000000000000000000000000000000000000000000000000000000000000000000000000000000000000000000000000000000000000000000000000000000000000000000000000000000000000000000000000000000000000000000000000000000000000000000000000000000000000000000000000000000000000000000000000000000000000000000000000000",
      "type": "0x0",
      "transactionHash": "0x4e654b5ee9eee4460c42a0389ce967adbd9f89fac1c4ef8d0fa5acea3d22a174",
      "transactionIndex": "0x14",
      "blockHash": "0x406ddcb8aeb814a97068aac9ecc65558da00dfeb3df431291232127f1f78d82f",
      "blockNumber": "0x255fe2e",
      "gasUsed": "0x82e54",
      "effectiveGasPrice": "0x5b8d80",
      "blobGasUsed": "0x0",
      "from": "0xd9a1048f900e57c0c320ef11effaf725d1a9353f",
      "to": null,
      "contractAddress": null,
      "l1BaseFeeScalar": "0x44d",
      "l1BlobBaseFee": "0x1",
      "l1BlobBaseFeeScalar": "0xa118b",
      "l1Fee": "0x6fa",
      "l1GasPrice": "0x10",
      "l1GasUsed": "0x7694"
    },
    {
      "status": "0x1",
      "cumulativeGasUsed": "0x985853",
      "logs": [],
      "logsBloom": "0x00000000000000000000000000000000000000000000000000000000000000000000000000000000000000000000000000000000000000000000000000000000000000000000000000000000000000000000000000000000000000000000000000000000000000000000000000000000000000000000000000000000000000000000000000000000000000000000000000000000000000000000000000000000000000000000000000000000000000000000000000000000000000000000000000000000000000000000000000000000000000000000000000000000000000000000000000000000000000000000000000000000000000000000000000000000",
      "type": "0x0",
      "transactionHash": "0x663c5ec724224e3c915f459d43cbe6fd77870f68c63d50efeaf86be20c84bf2d",
      "transactionIndex": "0x29",
      "blockHash": "0x34fea7ddb79469d218850cc15c10a6577f8ad7e982ea928f8836d5771e536775",
      "blockNumber": "0x255fe2f",
      "gasUsed": "0x23ac2",
      "effectiveGasPrice": "0x5b8d80",
      "blobGasUsed": "0x0",
      "from": "0xd9a1048f900e57c0c320ef11effaf725d1a9353f",
      "to": null,
      "contractAddress": "0x55bd48c34441feda5c0d45a2400976fb933abb7e",
      "daFootprintGasScalar": "0x8b",
      "l1BaseFeeScalar": "0x44d",
      "l1BlobBaseFee": "0x1",
      "l1BlobBaseFeeScalar": "0xa118b",
      "l1Fee": "0x118",
      "l1GasPrice": "0x10",
      "l1GasUsed": "0x129d"
    },
    {
      "status": "0x1",
      "cumulativeGasUsed": "0xdc6fc",
      "logs": [],
      "logsBloom": "0x00000000000000000000000000000000000000000000000000000000000000000000000000000000000000000000000000000000000000000000000000000000000000000000000000000000000000000000000000000000000000000000000000000000000000000000000000000000000000000000000000000000000000000000000000000000000000000000000000000000000000000000000000000000000000000000000000000000000000000000000000000000000000000000000000000000000000000000000000000000000000000000000000000000000000000000000000000000000000000000000000000000000000000000000000000000",
      "type": "0x0",
      "transactionHash": "0xe9348be24a26a6c8af71b1d8b0a57a9baa98d9cba317c4896d45865d3e9e398f",
      "transactionIndex": "0x7",
      "blockHash": "0x4f2661bcce649bfed21460c8e12520e56760c0d278f7bb22703c99c338716e2f",
      "blockNumber": "0x255fe31",
      "gasUsed": "0x23ace",
      "effectiveGasPrice": "0x5b8d80",
      "blobGasUsed": "0x0",
      "from": "0xd9a1048f900e57c0c320ef11effaf725d1a9353f",
      "to": null,
      "contractAddress": null,
      "l1BaseFeeScalar": "0x44d",
      "l1BlobBaseFee": "0x1",
      "l1BlobBaseFeeScalar": "0xa118b",
      "l1Fee": "0x119",
      "l1GasPrice": "0x10",
      "l1GasUsed": "0x12ab"
    },
    {
      "status": "0x1",
      "cumulativeGasUsed": "0x4d7a7c",
      "logs": [],
      "logsBloom": "0x00000000000000000000000000000000000000000000000000000000000000000000000000000000000000000000000000000000000000000000000000000000000000000000000000000000000000000000000000000000000000000000000000000000000000000000000000000000000000000000000000000000000000000000000000000000000000000000000000000000000000000000000000000000000000000000000000000000000000000000000000000000000000000000000000000000000000000000000000000000000000000000000000000000000000000000000000000000000000000000000000000000000000000000000000000000",
      "type": "0x0",
      "transactionHash": "0x46e94a9b3acc66a825282d356a0b9f2dd25ebc081ee5ebac48f52b31d0be2ab6",
      "transactionIndex": "0x1c",
      "blockHash": "0xfd8030b2430b35da6d69ab40c8695521ef3b8c2879b0f8ce90b835745abe5626",
      "blockNumber": "0x255fe32",
      "gasUsed": "0x23ab6",
      "effectiveGasPrice": "0x5b8d80",
      "blobGasUsed": "0x0",
      "from": "0xd9a1048f900e57c0c320ef11effaf725d1a9353f",
      "to": null,
      "contractAddress": "0xdc74e032653b3a593ed6b8d2bea2acd16965c28b",
      "daFootprintGasScalar": "0x8b",
      "l1BaseFeeScalar": "0x44d",
      "l1BlobBaseFee": "0x1",
      "l1BlobBaseFeeScalar": "0xa118b",
      "l1Fee": "0x117",
      "l1GasPrice": "0x10",
      "l1GasUsed": "0x1290"
    },
    {
      "status": "0x1",
      "cumulativeGasUsed": "0x456e06",
      "logs": [
        {
          "address": "0x15880a9e1719aad5a37c99203c51c2e445651c94",
          "topics": [
            "0x2f8788117e7eff1d82e926ec794901d17c78024a50270940304540a733656f0d",
            "0x0000000000000000000000000000000000000000000000000000000000000000",
            "0x000000000000000000000000d9a1048f900e57c0c320ef11effaf725d1a9353f",
            "0x000000000000000000000000d9a1048f900e57c0c320ef11effaf725d1a9353f"
          ],
          "data": "0x",
          "blockHash": "0xac64e4bf030d6ba24d7851976a63eac16e910fc2dfbb032010cab801940282c6",
          "blockNumber": "0x255fe34",
          "blockTimestamp": "0x69bf5b48",
          "transactionHash": "0x20c93418614d75649769f3e6c05e3a95d32b688529b2395f5aa2545eccf7821c",
          "transactionIndex": "0x12",
          "logIndex": "0x0",
          "removed": false
        },
        {
          "address": "0x15880a9e1719aad5a37c99203c51c2e445651c94",
          "topics": [
            "0x2f8788117e7eff1d82e926ec794901d17c78024a50270940304540a733656f0d",
            "0x241ecf16d79d0f8dbfb92cbc07fe17840425976cf0667f022fe9877caa831b08",
            "0x000000000000000000000000d9a1048f900e57c0c320ef11effaf725d1a9353f",
            "0x000000000000000000000000d9a1048f900e57c0c320ef11effaf725d1a9353f"
          ],
          "data": "0x",
          "blockHash": "0xac64e4bf030d6ba24d7851976a63eac16e910fc2dfbb032010cab801940282c6",
          "blockNumber": "0x255fe34",
          "blockTimestamp": "0x69bf5b48",
          "transactionHash": "0x20c93418614d75649769f3e6c05e3a95d32b688529b2395f5aa2545eccf7821c",
          "transactionIndex": "0x12",
          "logIndex": "0x1",
          "removed": false
        },
        {
          "address": "0x15880a9e1719aad5a37c99203c51c2e445651c94",
          "topics": [
            "0x2f8788117e7eff1d82e926ec794901d17c78024a50270940304540a733656f0d",
            "0x68e79a7bf1e0bc45d0a330c573bc367f9cf464fd326078812f301165fbda4ef1",
            "0x000000000000000000000000d9a1048f900e57c0c320ef11effaf725d1a9353f",
            "0x000000000000000000000000d9a1048f900e57c0c320ef11effaf725d1a9353f"
          ],
          "data": "0x",
          "blockHash": "0xac64e4bf030d6ba24d7851976a63eac16e910fc2dfbb032010cab801940282c6",
          "blockNumber": "0x255fe34",
          "blockTimestamp": "0x69bf5b48",
          "transactionHash": "0x20c93418614d75649769f3e6c05e3a95d32b688529b2395f5aa2545eccf7821c",
          "transactionIndex": "0x12",
          "logIndex": "0x2",
          "removed": false
        }
      ],
      "logsBloom": "0x00000000000000000000000000000000000000000000000000000000000000000000000000000000000000000000000000000000000000000000000000000000000000000000000000000000000000000000000000000000000000000000000000000000000000000000000000000000000000000000000000000000000000000000000000000000000000000000000000000000000000000000000000000000000000000000000000000000000000000000000000000000000000000000000000000000000000000000000000000000000000000000000000000000000000000000000000000000000000000000000000000000000000000000000000000000",
      "type": "0x0",
      "transactionHash": "0x20c93418614d75649769f3e6c05e3a95d32b688529b2395f5aa2545eccf7821c",
      "transactionIndex": "0x12",
      "blockHash": "0xac64e4bf030d6ba24d7851976a63eac16e910fc2dfbb032010cab801940282c6",
      "blockNumber": "0x255fe34",
      "gasUsed": "0x1c3178",
      "effectiveGasPrice": "0x5b8d80",
      "blobGasUsed": "0x0",
      "from": "0xd9a1048f900e57c0c320ef11effaf725d1a9353f",
      "to": null,
      "contractAddress": null,
      "l1BaseFeeScalar": "0x44d",
      "l1BlobBaseFee": "0x1",
      "l1BlobBaseFeeScalar": "0xa118b",
      "l1Fee": "0x1205",
      "l1GasPrice": "0x10",
      "l1GasUsed": "0x13229"
    },
    {
      "status": "0x1",
      "cumulativeGasUsed": "0x28bc80",
      "logs": [],
      "logsBloom": "0x00000000000000000000000000000000000000000000000000000000000000000000000000000000000000000000000000000000000000000000000000000000000000000000000000000000000000000000000000000000000000000000000000000000000000000000000000000000000000000000000000000000000000000000000000000000000000000000000000000000000000000000000000000000000000000000000000000000000000000000000000000000000000000000000000000000000000000000000000000000000000000000000000000000000000000000000000000000000000000000000000000000000000000000000000000000",
      "type": "0x0",
      "transactionHash": "0xa7f8658d73a03a2d96cf99a4f1b013958c60901e954927f4b2da21bc3b608c9e",
      "transactionIndex": "0x12",
      "blockHash": "0x6017e235493c9d20273423614678c3bdc97892cd26933d81ca60125be4c03d61",
      "blockNumber": "0x255fe36",
      "gasUsed": "0x3ca39",
      "effectiveGasPrice": "0x5b8d80",
      "blobGasUsed": "0x0",
      "from": "0xd9a1048f900e57c0c320ef11effaf725d1a9353f",
      "to": null,
      "contractAddress": null,
      "l1BaseFeeScalar": "0x44d",
      "l1BlobBaseFee": "0x1",
      "l1BlobBaseFeeScalar": "0xa118b",
      "l1Fee": "0x224",
      "l1GasPrice": "0x10",
      "l1GasUsed": "0x2464"
    },
    {
      "status": "0x1",
      "cumulativeGasUsed": "0x623c5d",
      "logs": [
        {
          "address": "0x412f577b7e4f8ac392ba9d8876d7a17e4891f6ab",
          "topics": [
            "0x2f8788117e7eff1d82e926ec794901d17c78024a50270940304540a733656f0d",
            "0x0000000000000000000000000000000000000000000000000000000000000000",
            "0x000000000000000000000000d9a1048f900e57c0c320ef11effaf725d1a9353f",
            "0x000000000000000000000000d9a1048f900e57c0c320ef11effaf725d1a9353f"
          ],
          "data": "0x",
          "blockHash": "0x9d02377b8392efc2e12bcfcbef85501541b735141260802409aa6b07ea7518d3",
          "blockNumber": "0x255fe38",
          "blockTimestamp": "0x69bf5b50",
          "transactionHash": "0xe8ee3940e734f78732f5f2e3881902c8b2b7de1806874b02db42e3452ecf23d5",
          "transactionIndex": "0xe",
          "logIndex": "0x0",
          "removed": false
        },
        {
          "address": "0x412f577b7e4f8ac392ba9d8876d7a17e4891f6ab",
          "topics": [
            "0x2f8788117e7eff1d82e926ec794901d17c78024a50270940304540a733656f0d",
            "0x24e583e35a20f9ecfc1572e7cb66bcc18ad3cd1650ec40dbf6ad2290e553a9fa",
            "0x000000000000000000000000d9a1048f900e57c0c320ef11effaf725d1a9353f",
            "0x000000000000000000000000d9a1048f900e57c0c320ef11effaf725d1a9353f"
          ],
          "data": "0x",
          "blockHash": "0x9d02377b8392efc2e12bcfcbef85501541b735141260802409aa6b07ea7518d3",
          "blockNumber": "0x255fe38",
          "blockTimestamp": "0x69bf5b50",
          "transactionHash": "0xe8ee3940e734f78732f5f2e3881902c8b2b7de1806874b02db42e3452ecf23d5",
          "transactionIndex": "0xe",
          "logIndex": "0x1",
          "removed": false
        },
        {
          "address": "0x412f577b7e4f8ac392ba9d8876d7a17e4891f6ab",
          "topics": [
            "0x2f8788117e7eff1d82e926ec794901d17c78024a50270940304540a733656f0d",
            "0x65d7a28e3265b37a6474929f336521b332c1681b933f6cb9f3376673440d862a",
            "0x000000000000000000000000d9a1048f900e57c0c320ef11effaf725d1a9353f",
            "0x000000000000000000000000d9a1048f900e57c0c320ef11effaf725d1a9353f"
          ],
          "data": "0x",
          "blockHash": "0x9d02377b8392efc2e12bcfcbef85501541b735141260802409aa6b07ea7518d3",
          "blockNumber": "0x255fe38",
          "blockTimestamp": "0x69bf5b50",
          "transactionHash": "0xe8ee3940e734f78732f5f2e3881902c8b2b7de1806874b02db42e3452ecf23d5",
          "transactionIndex": "0xe",
          "logIndex": "0x2",
          "removed": false
        },
        {
          "address": "0x412f577b7e4f8ac392ba9d8876d7a17e4891f6ab",
          "topics": [
            "0x2f8788117e7eff1d82e926ec794901d17c78024a50270940304540a733656f0d",
            "0x5e17fc5225d4a099df75359ce1f405503ca79498a8dc46a7d583235a0ee45c16",
            "0x000000000000000000000000d9a1048f900e57c0c320ef11effaf725d1a9353f",
            "0x000000000000000000000000d9a1048f900e57c0c320ef11effaf725d1a9353f"
          ],
          "data": "0x",
          "blockHash": "0x9d02377b8392efc2e12bcfcbef85501541b735141260802409aa6b07ea7518d3",
          "blockNumber": "0x255fe38",
          "blockTimestamp": "0x69bf5b50",
          "transactionHash": "0xe8ee3940e734f78732f5f2e3881902c8b2b7de1806874b02db42e3452ecf23d5",
          "transactionIndex": "0xe",
          "logIndex": "0x3",
          "removed": false
        }
      ],
      "logsBloom": "0x00000000000000000000000000000000000000000000000000000000000000000000000000000000000000000000000000000000000000000000000000000000000000000000000000000000000000000000000000000000000000000000000000000000000000000000000000000000000000000000000000000000000000000000000000000000000000000000000000000000000000000000000000000000000000000000000000000000000000000000000000000000000000000000000000000000000000000000000000000000000000000000000000000000000000000000000000000000000000000000000000000000000000000000000000000000",
      "type": "0x0",
      "transactionHash": "0xe8ee3940e734f78732f5f2e3881902c8b2b7de1806874b02db42e3452ecf23d5",
      "transactionIndex": "0xe",
      "blockHash": "0x9d02377b8392efc2e12bcfcbef85501541b735141260802409aa6b07ea7518d3",
      "blockNumber": "0x255fe38",
      "gasUsed": "0x248417",
      "effectiveGasPrice": "0x5b8d80",
      "blobGasUsed": "0x0",
      "from": "0xd9a1048f900e57c0c320ef11effaf725d1a9353f",
      "to": null,
      "contractAddress": null,
      "l1BaseFeeScalar": "0x44d",
      "l1BlobBaseFee": "0x1",
      "l1BlobBaseFeeScalar": "0xa118b",
      "l1Fee": "0x1782",
      "l1GasPrice": "0x10",
      "l1GasUsed": "0x18f6e"
    },
    {
      "status": "0x1",
      "cumulativeGasUsed": "0x1d612e",
      "logs": [
        {
          "address": "0x2716c3e427b33c78d01e06a5ba19a673eb5d898b",
          "topics": [
            "0x2f8788117e7eff1d82e926ec794901d17c78024a50270940304540a733656f0d",
            "0x0000000000000000000000000000000000000000000000000000000000000000",
            "0x000000000000000000000000d9a1048f900e57c0c320ef11effaf725d1a9353f",
            "0x000000000000000000000000d9a1048f900e57c0c320ef11effaf725d1a9353f"
          ],
          "data": "0x",
          "blockHash": "0x8e26feaf0660e26b166ff8612742da01995016d42db338759bd01fa7fee72f8e",
          "blockNumber": "0x255fe3a",
          "blockTimestamp": "0x69bf5b54",
          "transactionHash": "0x9693f54bcb90394cb04206d3fab01c9429bc4c6269ca74579d45d86123bfc904",
          "transactionIndex": "0xa",
          "logIndex": "0x0",
          "removed": false
        },
        {
          "address": "0x2716c3e427b33c78d01e06a5ba19a673eb5d898b",
          "topics": [
            "0x2f8788117e7eff1d82e926ec794901d17c78024a50270940304540a733656f0d",
            "0xa714f487e9b7d04144116bbdc4586ede0e24a8be262414fb23a57f5647adec52",
            "0x000000000000000000000000d9a1048f900e57c0c320ef11effaf725d1a9353f",
            "0x000000000000000000000000d9a1048f900e57c0c320ef11effaf725d1a9353f"
          ],
          "data": "0x",
          "blockHash": "0x8e26feaf0660e26b166ff8612742da01995016d42db338759bd01fa7fee72f8e",
          "blockNumber": "0x255fe3a",
          "blockTimestamp": "0x69bf5b54",
          "transactionHash": "0x9693f54bcb90394cb04206d3fab01c9429bc4c6269ca74579d45d86123bfc904",
          "transactionIndex": "0xa",
          "logIndex": "0x1",
          "removed": false
        }
      ],
      "logsBloom": "0x00000000000000000000000000000000000000000000000000000000000000000000000000000000000000000000000000000000000000000000000000000000000000000000000000000000000000000000000000000000000000000000000000000000000000000000000000000000000000000000000000000000000000000000000000000000000000000000000000000000000000000000000000000000000000000000000000000000000000000000000000000000000000000000000000000000000000000000000000000000000000000000000000000000000000000000000000000000000000000000000000000000000000000000000000000000",
      "type": "0x0",
      "transactionHash": "0x9693f54bcb90394cb04206d3fab01c9429bc4c6269ca74579d45d86123bfc904",
      "transactionIndex": "0xa",
      "blockHash": "0x8e26feaf0660e26b166ff8612742da01995016d42db338759bd01fa7fee72f8e",
      "blockNumber": "0x255fe3a",
      "gasUsed": "0xe8ebc",
      "effectiveGasPrice": "0x5b8d80",
      "blobGasUsed": "0x0",
      "from": "0xd9a1048f900e57c0c320ef11effaf725d1a9353f",
      "to": null,
      "contractAddress": null,
      "l1BaseFeeScalar": "0x44d",
      "l1BlobBaseFee": "0x1",
      "l1BlobBaseFeeScalar": "0xa118b",
      "l1Fee": "0x961",
      "l1GasPrice": "0x10",
      "l1GasUsed": "0x9f5b"
    },
    {
      "status": "0x1",
      "cumulativeGasUsed": "0x2410d7",
      "logs": [
        {
          "address": "0x824d335886e8c516a121e2df59104f04cabae30b",
          "topics": [
            "0x2f8788117e7eff1d82e926ec794901d17c78024a50270940304540a733656f0d",
            "0x0000000000000000000000000000000000000000000000000000000000000000",
            "0x000000000000000000000000d9a1048f900e57c0c320ef11effaf725d1a9353f",
            "0x000000000000000000000000d9a1048f900e57c0c320ef11effaf725d1a9353f"
          ],
          "data": "0x",
          "blockHash": "0x430e3e6fdb82723daa5ff857ed5c2530ca1ab738f900d5feca9ffe1a7ef64b13",
          "blockNumber": "0x255fe3c",
          "blockTimestamp": "0x69bf5b58",
          "transactionHash": "0x1e66e6fbc8d2b147aedf9bf8b024a6651d2d6605c63f74578a52bf33ee70a315",
          "transactionIndex": "0x8",
          "logIndex": "0x0",
          "removed": false
        },
        {
          "address": "0x824d335886e8c516a121e2df59104f04cabae30b",
          "topics": [
            "0x2f8788117e7eff1d82e926ec794901d17c78024a50270940304540a733656f0d",
            "0x151ff8b4d0da3f5c5fabf30466470e82bc2019e5d78c902a7dc3f2aa4c0bdbcc",
            "0x000000000000000000000000d9a1048f900e57c0c320ef11effaf725d1a9353f",
            "0x000000000000000000000000d9a1048f900e57c0c320ef11effaf725d1a9353f"
          ],
          "data": "0x",
          "blockHash": "0x430e3e6fdb82723daa5ff857ed5c2530ca1ab738f900d5feca9ffe1a7ef64b13",
          "blockNumber": "0x255fe3c",
          "blockTimestamp": "0x69bf5b58",
          "transactionHash": "0x1e66e6fbc8d2b147aedf9bf8b024a6651d2d6605c63f74578a52bf33ee70a315",
          "transactionIndex": "0x8",
          "logIndex": "0x1",
          "removed": false
        }
      ],
      "logsBloom": "0x00000000000000000000000000000000000000000000000000000000000000000000000000000000000000000000000000000000000000000000000000000000000000000000000000000000000000000000000000000000000000000000000000000000000000000000000000000000000000000000000000000000000000000000000000000000000000000000000000000000000000000000000000000000000000000000000000000000000000000000000000000000000000000000000000000000000000000000000000000000000000000000000000000000000000000000000000000000000000000000000000000000000000000000000000000000",
      "type": "0x0",
      "transactionHash": "0x1e66e6fbc8d2b147aedf9bf8b024a6651d2d6605c63f74578a52bf33ee70a315",
      "transactionIndex": "0x8",
      "blockHash": "0x430e3e6fdb82723daa5ff857ed5c2530ca1ab738f900d5feca9ffe1a7ef64b13",
      "blockNumber": "0x255fe3c",
      "gasUsed": "0x15e2f1",
      "effectiveGasPrice": "0x5b8d80",
      "blobGasUsed": "0x0",
      "from": "0xd9a1048f900e57c0c320ef11effaf725d1a9353f",
      "to": null,
      "contractAddress": null,
      "l1BaseFeeScalar": "0x44d",
      "l1BlobBaseFee": "0x1",
      "l1BlobBaseFeeScalar": "0xa118b",
      "l1Fee": "0xe40",
      "l1GasPrice": "0x10",
      "l1GasUsed": "0xf22b"
    },
    {
      "status": "0x1",
      "cumulativeGasUsed": "0x41389c",
      "logs": [],
      "logsBloom": "0x00000000000000000000000000000000000000000000000000000000000000000000000000000000000000000000000000000000000000000000000000000000000000000000000000000000000000000000000000000000000000000000000000000000000000000000000000000000000000000000000000000000000000000000000000000000000000000000000000000000000000000000000000000000000000000000000000000000000000000000000000000000000000000000000000000000000000000000000000000000000000000000000000000000000000000000000000000000000000000000000000000000000000000000000000000000",
      "type": "0x0",
      "transactionHash": "0xa2596e121ba6c73ef8b8d20e783776f95a53a7dd85ff0ca6ea1c30f46cb5e12a",
      "transactionIndex": "0x14",
      "blockHash": "0x35350bd27373cf18b64ed1f2410e34d6b52084674bba16613182abfd57d2ba88",
      "blockNumber": "0x255fe3d",
      "gasUsed": "0xb543",
      "effectiveGasPrice": "0x5b8d80",
      "blobGasUsed": "0x0",
      "from": "0xd9a1048f900e57c0c320ef11effaf725d1a9353f",
      "to": "0x15880a9e1719aad5a37c99203c51c2e445651c94",
      "contractAddress": null,
      "l1BaseFeeScalar": "0x44d",
      "l1BlobBaseFee": "0x1",
      "l1BlobBaseFeeScalar": "0xa118b",
      "l1Fee": "0x5e",
      "l1GasPrice": "0x10",
      "l1GasUsed": "0x640"
    },
    {
      "status": "0x1",
      "cumulativeGasUsed": "0xbbdee8",
      "logs": [],
      "logsBloom": "0x00000000000000000000000000000000000000000000000000000000000000000000000000000000000000000000000000000000000000000000000000000000000000000000000000000000000000000000000000000000000000000000000000000000000000000000000000000000000000000000000000000000000000000000000000000000000000000000000000000000000000000000000000000000000000000000000000000000000000000000000000000000000000000000000000000000000000000000000000000000000000000000000000000000000000000000000000000000000000000000000000000000000000000000000000000000",
      "type": "0x0",
      "transactionHash": "0x4e11d9131171a50f51bb26f13ae40b6b5ffba6fcc6b521f02d12d83fe6e09015",
      "transactionIndex": "0x34",
      "blockHash": "0xa6c257101682469a2e2ec2afacfb69a6d4544085e7896725e502a0fded53d4b4",
      "blockNumber": "0x255fe3e",
      "gasUsed": "0xb40f",
      "effectiveGasPrice": "0x5b8d80",
      "blobGasUsed": "0x0",
      "from": "0xd9a1048f900e57c0c320ef11effaf725d1a9353f",
      "to": "0x15880a9e1719aad5a37c99203c51c2e445651c94",
      "contractAddress": null,
      "l1BaseFeeScalar": "0x44d",
      "l1BlobBaseFee": "0x1",
      "l1BlobBaseFeeScalar": "0xa118b",
      "l1Fee": "0x5e",
      "l1GasPrice": "0x10",
      "l1GasUsed": "0x640"
    },
    {
      "status": "0x1",
      "cumulativeGasUsed": "0x51b8ab",
      "logs": [
        {
          "address": "0x2716c3e427b33c78d01e06a5ba19a673eb5d898b",
          "topics": [
            "0x2f8788117e7eff1d82e926ec794901d17c78024a50270940304540a733656f0d",
            "0xaa81ee395afa833565c18c39ee4f0c85fcaf28506ddf41795f434a3494e4a6b8",
            "0x000000000000000000000000824d335886e8c516a121e2df59104f04cabae30b",
            "0x000000000000000000000000d9a1048f900e57c0c320ef11effaf725d1a9353f"
          ],
          "data": "0x",
          "blockHash": "0x9f8d985eb73819b24b873bab7cda401c2127df7bfb7b4a481bf3e9b3a90ed7cc",
          "blockNumber": "0x255fe40",
          "blockTimestamp": "0x69bf5b60",
          "transactionHash": "0x3b92fc069e9be255359e69f1f4ec78e8f2612f83c20a631ff9ae09659ea4f498",
          "transactionIndex": "0x13",
          "logIndex": "0x0",
          "removed": false
        }
      ],
      "logsBloom": "0x00000000000000000000000000000000000000000000000000000000000000000000000000000000000000000000000000000000000000000000000000000000000000000000000000000000000000000000000000000000000000000000000000000000000000000000000000000000000000000000000000000000000000000000000000000000000000000000000000000000000000000000000000000000000000000000000000000000000000000000000000000000000000000000000000000000000000000000000000000000000000000000000000000000000000000000000000000000000000000000000000000000000000000000000000000000",
      "type": "0x0",
      "transactionHash": "0x3b92fc069e9be255359e69f1f4ec78e8f2612f83c20a631ff9ae09659ea4f498",
      "transactionIndex": "0x13",
      "blockHash": "0x9f8d985eb73819b24b873bab7cda401c2127df7bfb7b4a481bf3e9b3a90ed7cc",
      "blockNumber": "0x255fe40",
      "gasUsed": "0xbdf5",
      "effectiveGasPrice": "0x5b8d80",
      "blobGasUsed": "0x0",
      "from": "0xd9a1048f900e57c0c320ef11effaf725d1a9353f",
      "to": "0x2716c3e427b33c78d01e06a5ba19a673eb5d898b",
      "contractAddress": null,
      "l1BaseFeeScalar": "0x44d",
      "l1BlobBaseFee": "0x1",
      "l1BlobBaseFeeScalar": "0xa118b",
      "l1Fee": "0x5e",
      "l1GasPrice": "0x10",
      "l1GasUsed": "0x640"
    },
    {
      "status": "0x1",
      "cumulativeGasUsed": "0x1ab531",
      "logs": [
        {
          "address": "0x412f577b7e4f8ac392ba9d8876d7a17e4891f6ab",
          "topics": [
            "0x2f8788117e7eff1d82e926ec794901d17c78024a50270940304540a733656f0d",
            "0x5e17fc5225d4a099df75359ce1f405503ca79498a8dc46a7d583235a0ee45c16",
            "0x000000000000000000000000824d335886e8c516a121e2df59104f04cabae30b",
            "0x000000000000000000000000d9a1048f900e57c0c320ef11effaf725d1a9353f"
          ],
          "data": "0x",
          "blockHash": "0x785fc51ddc8a5cc7c9335c68b5498c6fde691c7947b81271ce685aabbded270b",
          "blockNumber": "0x255fe42",
          "blockTimestamp": "0x69bf5b64",
          "transactionHash": "0x35bc51e66dfacd042012ea3ccfa80ba15556f404ee9bdc8d497ffa03750a3f10",
          "transactionIndex": "0xa",
          "logIndex": "0x0",
          "removed": false
        }
      ],
      "logsBloom": "0x00000000000000000000000000000000000000000000000000000000000000000000000000000000000000000000000000000000000000000000000000000000000000000000000000000000000000000000000000000000000000000000000000000000000000000000000000000000000000000000000000000000000000000000000000000000000000000000000000000000000000000000000000000000000000000000000000000000000000000000000000000000000000000000000000000000000000000000000000000000000000000000000000000000000000000000000000000000000000000000000000000000000000000000000000000000",
      "type": "0x0",
      "transactionHash": "0x35bc51e66dfacd042012ea3ccfa80ba15556f404ee9bdc8d497ffa03750a3f10",
      "transactionIndex": "0xa",
      "blockHash": "0x785fc51ddc8a5cc7c9335c68b5498c6fde691c7947b81271ce685aabbded270b",
      "blockNumber": "0x255fe42",
      "gasUsed": "0xc86a",
      "effectiveGasPrice": "0x5b8d80",
      "blobGasUsed": "0x0",
      "from": "0xd9a1048f900e57c0c320ef11effaf725d1a9353f",
      "to": "0x412f577b7e4f8ac392ba9d8876d7a17e4891f6ab",
      "contractAddress": null,
      "l1BaseFeeScalar": "0x44d",
      "l1BlobBaseFee": "0x1",
      "l1BlobBaseFeeScalar": "0xa118b",
      "l1Fee": "0x5e",
      "l1GasPrice": "0x10",
      "l1GasUsed": "0x647"
    },
    {
      "status": "0x1",
      "cumulativeGasUsed": "0xc84362",
      "logs": [
        {
          "address": "0x15880a9e1719aad5a37c99203c51c2e445651c94",
          "topics": [
            "0x77bde115076ea146490886f6cce75ddb376f63271bb910e4764f30374d4db922",
            "0x0000000000000000000000002c5bedd15f3d40da729a68d852e4f436da14ef79"
          ],
          "data": "0x000000000000000000000000000000000000000000000000000000000000000200000000000000000000000000000000000000000000000000000000000001f4",
          "blockHash": "0x20a929cfbc2cf7ab13a717f8376a91188cc2812004e8191cd68783a176bfe062",
          "blockNumber": "0x255fe43",
          "blockTimestamp": "0x69bf5b66",
          "transactionHash": "0x02e3000d1ad17b0023856fc03d58fd5263bf2562be88f4912c2f45c7ddb20b5e",
          "transactionIndex": "0x35",
          "logIndex": "0x16d",
          "removed": false
        }
      ],
      "logsBloom": "0x00000100000000080000000000000000000000000000000000000000000000000000000000000000000000000000000000000000000000000000000000000000000000000000000000000000000000000000000000000000000000000000000000000000000000000000000000000000000000000000000000000000000000000000000000000100000000000000008000000000000000000000004002000000000000000010000000000000000000000000000000000000000000000000000000000002000000000000000000000000000000000000000000000000000000000000000000000000000000000000000000000000001000000000000000000000",
      "type": "0x0",
      "transactionHash": "0x02e3000d1ad17b0023856fc03d58fd5263bf2562be88f4912c2f45c7ddb20b5e",
      "transactionIndex": "0x35",
      "blockHash": "0x20a929cfbc2cf7ab13a717f8376a91188cc2812004e8191cd68783a176bfe062",
      "blockNumber": "0x255fe43",
      "gasUsed": "0x1c77e",
      "effectiveGasPrice": "0x5b8d80",
      "blobGasUsed": "0x0",
      "from": "0xd9a1048f900e57c0c320ef11effaf725d1a9353f",
      "to": "0x15880a9e1719aad5a37c99203c51c2e445651c94",
      "contractAddress": null,
      "daFootprintGasScalar": "0x8b",
      "l1BaseFeeScalar": "0x44d",
      "l1BlobBaseFee": "0x1",
      "l1BlobBaseFeeScalar": "0xa118b",
      "l1Fee": "0x60",
      "l1GasPrice": "0x10",
      "l1GasUsed": "0x662"
    },
    {
      "status": "0x1",
      "cumulativeGasUsed": "0x39caa0",
      "logs": [
        {
          "address": "0x15880a9e1719aad5a37c99203c51c2e445651c94",
          "topics": [
            "0x77bde115076ea146490886f6cce75ddb376f63271bb910e4764f30374d4db922",
            "0x00000000000000000000000083388045cab4cadc82acfa99a63b17e6d4e5cc87"
          ],
          "data": "0x00000000000000000000000000000000000000000000000000000000000000000000000000000000000000000000000000000000000000000000000000001388",
          "blockHash": "0x5f3d43318076cbce0f98809d4a2e34f9383d05c2e97ab21ce692b90dd87a7c4a",
          "blockNumber": "0x255fe44",
          "blockTimestamp": "0x69bf5b68",
          "transactionHash": "0xec443d1d70b5593080093fcd6b8753a823eac1c8bb3cf9abbf7f677495a92267",
          "transactionIndex": "0x1a",
          "logIndex": "0x2e",
          "removed": false
        }
      ],
      "logsBloom": "0x00000100000000080000000000000000000000000000000000000000000000000000000000000000000000000000000000000000000000000000000000000000000000000000000000000000000000000000000000000000000000000000000000000000000000000000000000080000000000000100000000000000000000000000000000000000000000000000000000000000000000000000004002000000000000000010000000000000000000000000000000000000000000000000000000000002100000000000000000000000000000000000000000000000000000000000000000000000000000000000000000000000000000000000000000000000",
      "type": "0x0",
      "transactionHash": "0xec443d1d70b5593080093fcd6b8753a823eac1c8bb3cf9abbf7f677495a92267",
      "transactionIndex": "0x1a",
      "blockHash": "0x5f3d43318076cbce0f98809d4a2e34f9383d05c2e97ab21ce692b90dd87a7c4a",
      "blockNumber": "0x255fe44",
      "gasUsed": "0x18596",
      "effectiveGasPrice": "0x5b8d80",
      "blobGasUsed": "0x0",
      "from": "0xd9a1048f900e57c0c320ef11effaf725d1a9353f",
      "to": "0x15880a9e1719aad5a37c99203c51c2e445651c94",
      "contractAddress": null,
      "daFootprintGasScalar": "0x8b",
      "l1BaseFeeScalar": "0x44d",
      "l1BlobBaseFee": "0x1",
      "l1BlobBaseFeeScalar": "0xa118b",
      "l1Fee": "0x6a",
      "l1GasPrice": "0x10",
      "l1GasUsed": "0x710"
    },
    {
      "status": "0x1",
      "cumulativeGasUsed": "0x7afadd",
      "logs": [
        {
          "address": "0x15880a9e1719aad5a37c99203c51c2e445651c94",
          "topics": [
            "0x77bde115076ea146490886f6cce75ddb376f63271bb910e4764f30374d4db922",
            "0x000000000000000000000000b4a47f5d656c177be6cf4839551217f44cbb2cb5"
          ],
          "data": "0x00000000000000000000000000000000000000000000000000000000000000010000000000000000000000000000000000000000000000000000000000001194",
          "blockHash": "0x053434fc2c7cc7881d6bad596a4de1e490be102a49608d68e462587bdb41ce65",
          "blockNumber": "0x255fe46",
          "blockTimestamp": "0x69bf5b6c",
          "transactionHash": "0x647e18dd66ce914636e7d3e9071a7201e10f7600d7e5de1724cd42ed234bdd9c",
          "transactionIndex": "0x1c",
          "logIndex": "0x0",
          "removed": false
        }
      ],
      "logsBloom": "0x00000000000000000000000000000000000000000000000000000000000000000000000000000000000000000000000000000000000000000000000000000000000000000000000000000000000000000000000000000000000000000000000000000000000000000000000000000000000000000000000000000000000000000000000000000000000000000000000000000000000000000000000000000000000000000000000000000000000000000000000000000000000000000000000000000000000000000000000000000000000000000000000000000000000000000000000000000000000000000000000000000000000000000000000000000000",
      "type": "0x0",
      "transactionHash": "0x647e18dd66ce914636e7d3e9071a7201e10f7600d7e5de1724cd42ed234bdd9c",
      "transactionIndex": "0x1c",
      "blockHash": "0x053434fc2c7cc7881d6bad596a4de1e490be102a49608d68e462587bdb41ce65",
      "blockNumber": "0x255fe46",
      "gasUsed": "0x18596",
      "effectiveGasPrice": "0x5b8d80",
      "blobGasUsed": "0x0",
      "from": "0xd9a1048f900e57c0c320ef11effaf725d1a9353f",
      "to": "0x15880a9e1719aad5a37c99203c51c2e445651c94",
      "contractAddress": null,
      "l1BaseFeeScalar": "0x44d",
      "l1BlobBaseFee": "0x1",
      "l1BlobBaseFeeScalar": "0xa118b",
      "l1Fee": "0x73",
      "l1GasPrice": "0x10",
      "l1GasUsed": "0x7a3"
    },
    {
      "status": "0x1",
      "cumulativeGasUsed": "0x8b0f2",
      "logs": [
        {
          "address": "0x15880a9e1719aad5a37c99203c51c2e445651c94",
          "topics": [
            "0x77bde115076ea146490886f6cce75ddb376f63271bb910e4764f30374d4db922",
            "0x000000000000000000000000cc86944f5e7385ca6df8eec5d40957840cfdfbb2"
          ],
          "data": "0x00000000000000000000000000000000000000000000000000000000000000030000000000000000000000000000000000000000000000000000000000001770",
          "blockHash": "0x61e1589bba84da2593eaf97a7a3760d8c206ba685561e569f40698563ce83e02",
          "blockNumber": "0x255fe48",
          "blockTimestamp": "0x69bf5b70",
          "transactionHash": "0xd8931ef3c719cfbde0c9edef2374a63594f3868a06349ce829846d09e464dc3f",
          "transactionIndex": "0x3",
          "logIndex": "0x0",
          "removed": false
        }
      ],
      "logsBloom": "0x00000000000000000000000000000000000000000000000000000000000000000000000000000000000000000000000000000000000000000000000000000000000000000000000000000000000000000000000000000000000000000000000000000000000000000000000000000000000000000000000000000000000000000000000000000000000000000000000000000000000000000000000000000000000000000000000000000000000000000000000000000000000000000000000000000000000000000000000000000000000000000000000000000000000000000000000000000000000000000000000000000000000000000000000000000000",
      "type": "0x0",
      "transactionHash": "0xd8931ef3c719cfbde0c9edef2374a63594f3868a06349ce829846d09e464dc3f",
      "transactionIndex": "0x3",
      "blockHash": "0x61e1589bba84da2593eaf97a7a3760d8c206ba685561e569f40698563ce83e02",
      "blockNumber": "0x255fe48",
      "gasUsed": "0x185a2",
      "effectiveGasPrice": "0x5b8d80",
      "blobGasUsed": "0x0",
      "from": "0xd9a1048f900e57c0c320ef11effaf725d1a9353f",
      "to": "0x15880a9e1719aad5a37c99203c51c2e445651c94",
      "contractAddress": null,
      "l1BaseFeeScalar": "0x44d",
      "l1BlobBaseFee": "0x1",
      "l1BlobBaseFeeScalar": "0xa118b",
      "l1Fee": "0x72",
      "l1GasPrice": "0x10",
      "l1GasUsed": "0x795"
    },
    {
      "status": "0x1",
      "cumulativeGasUsed": "0xb62136",
      "logs": [
        {
          "address": "0x2c5bedd15f3d40da729a68d852e4f436da14ef79",
          "topics": [
            "0xddf252ad1be2c89b69c2b068fc378daa952ba7f163c4a11628f55a4df523b3ef",
            "0x0000000000000000000000000000000000000000000000000000000000000000",
            "0x000000000000000000000000d9a1048f900e57c0c320ef11effaf725d1a9353f"
          ],
          "data": "0x000000000000000000000000000000000000000000000000000000e8d4a51000",
          "blockHash": "0x9852c8b992265536501bb75671baf1387da73aa7a1862c6e6931bcce01a4cb69",
          "blockNumber": "0x255fe49",
          "blockTimestamp": "0x69bf5b72",
          "transactionHash": "0xfb0eb9c22345811dd9ad44a00f7166f1627db01fdc735dba090bfe4d4ac2b99e",
          "transactionIndex": "0x2b",
          "logIndex": "0x181",
          "removed": false
        }
      ],
      "logsBloom": "0x00000000000000010000000000000000000000000000000000000000000000000000000000000000000000000000000200000000000000000010000000000000000000000000000000000008000000000000000000000000000000000000000000000000020000000000000000000800000000000040000000000010000000000000000000000000000000000000000000000000000000000000000000000000000000000000000000000000000000000000000000000000000000000000000000000002000000000000000000000000000000000000000000000000000020000000000000000000000000000000000000000000000000000000400000000010",
      "type": "0x0",
      "transactionHash": "0xfb0eb9c22345811dd9ad44a00f7166f1627db01fdc735dba090bfe4d4ac2b99e",
      "transactionIndex": "0x2b",
      "blockHash": "0x9852c8b992265536501bb75671baf1387da73aa7a1862c6e6931bcce01a4cb69",
      "blockNumber": "0x255fe49",
      "gasUsed": "0x10a00",
      "effectiveGasPrice": "0x5b8d80",
      "blobGasUsed": "0x0",
      "from": "0xd9a1048f900e57c0c320ef11effaf725d1a9353f",
      "to": "0x2c5bedd15f3d40da729a68d852e4f436da14ef79",
      "contractAddress": null,
      "daFootprintGasScalar": "0x8b",
      "l1BaseFeeScalar": "0x44d",
      "l1BlobBaseFee": "0x1",
      "l1BlobBaseFeeScalar": "0xa118b",
      "l1Fee": "0x5e",
      "l1GasPrice": "0x10",
      "l1GasUsed": "0x640"
    },
    {
      "status": "0x1",
      "cumulativeGasUsed": "0xecd2a",
      "logs": [
        {
          "address": "0x2c5bedd15f3d40da729a68d852e4f436da14ef79",
          "topics": [
            "0x8c5be1e5ebec7d5bd14f71427d1e84f3dd0314c0f7b2291e5b200ac8c7c3b925",
            "0x000000000000000000000000d9a1048f900e57c0c320ef11effaf725d1a9353f",
            "0x000000000000000000000000412f577b7e4f8ac392ba9d8876d7a17e4891f6ab"
          ],
          "data": "0xffffffffffffffffffffffffffffffffffffffffffffffffffffffffffffffff",
          "blockHash": "0x6de4d24f3331082fd3a257774a37766c9c1a5567310fa9bd608845b9174be323",
          "blockNumber": "0x255fe4b",
          "blockTimestamp": "0x69bf5b76",
          "transactionHash": "0x69634fc498a1a8aae7caf34e7292c61a1a6f015270a1889e4ae8dd3546dd6e99",
          "transactionIndex": "0x6",
          "logIndex": "0x0",
          "removed": false
        }
      ],
      "logsBloom": "0x00000000000000000000000000000000000000000000000000000000000000000000000000000000000000000000000000000000000000000000000000000000000000000000000000000000000000000000000000000000000000000000000000000000000000000000000000000000000000000000000000000000000000000000000000000000000000000000000000000000000000000000000000000000000000000000000000000000000000000000000000000000000000000000000000000000000000000000000000000000000000000000000000000000000000000000000000000000000000000000000000000000000000000000000000000000",
      "type": "0x0",
      "transactionHash": "0x69634fc498a1a8aae7caf34e7292c61a1a6f015270a1889e4ae8dd3546dd6e99",
      "transactionIndex": "0x6",
      "blockHash": "0x6de4d24f3331082fd3a257774a37766c9c1a5567310fa9bd608845b9174be323",
      "blockNumber": "0x255fe4b",
      "gasUsed": "0xb4cb",
      "effectiveGasPrice": "0x5b8d80",
      "blobGasUsed": "0x0",
      "from": "0xd9a1048f900e57c0c320ef11effaf725d1a9353f",
      "to": "0x2c5bedd15f3d40da729a68d852e4f436da14ef79",
      "contractAddress": null,
      "l1BaseFeeScalar": "0x44d",
      "l1BlobBaseFee": "0x1",
      "l1BlobBaseFeeScalar": "0xa118b",
      "l1Fee": "0x5e",
      "l1GasPrice": "0x10",
      "l1GasUsed": "0x640"
    },
    {
      "status": "0x1",
      "cumulativeGasUsed": "0xe78a33",
      "logs": [
        {
          "address": "0x2c5bedd15f3d40da729a68d852e4f436da14ef79",
          "topics": [
            "0xddf252ad1be2c89b69c2b068fc378daa952ba7f163c4a11628f55a4df523b3ef",
            "0x000000000000000000000000d9a1048f900e57c0c320ef11effaf725d1a9353f",
            "0x000000000000000000000000412f577b7e4f8ac392ba9d8876d7a17e4891f6ab"
          ],
          "data": "0x000000000000000000000000000000000000000000000000000000746a528800",
          "blockHash": "0xe2d08dba14ca3c8a2cc0c58d7276ad875316d42d02c1a7233669d091373e76d5",
          "blockNumber": "0x255fe4c",
          "blockTimestamp": "0x69bf5b78",
          "transactionHash": "0xedfefb2bb6f5bba0e138e04dfc9c265f9454d01fb771da09857ccba31fff8a75",
          "transactionIndex": "0x32",
          "logIndex": "0x0",
          "removed": false
        },
        {
          "address": "0x412f577b7e4f8ac392ba9d8876d7a17e4891f6ab",
          "topics": [
            "0xddf252ad1be2c89b69c2b068fc378daa952ba7f163c4a11628f55a4df523b3ef",
            "0x0000000000000000000000000000000000000000000000000000000000000000",
            "0x000000000000000000000000d9a1048f900e57c0c320ef11effaf725d1a9353f"
          ],
          "data": "0x000000000000000000000000000000000000000000000000000000746a528800",
          "blockHash": "0xe2d08dba14ca3c8a2cc0c58d7276ad875316d42d02c1a7233669d091373e76d5",
          "blockNumber": "0x255fe4c",
          "blockTimestamp": "0x69bf5b78",
          "transactionHash": "0xedfefb2bb6f5bba0e138e04dfc9c265f9454d01fb771da09857ccba31fff8a75",
          "transactionIndex": "0x32",
          "logIndex": "0x1",
          "removed": false
        },
        {
          "address": "0x412f577b7e4f8ac392ba9d8876d7a17e4891f6ab",
          "topics": [
            "0xdcbc1c05240f31ff3ad067ef1ee35ce4997762752e3a095284754544f4c709d7",
            "0x000000000000000000000000d9a1048f900e57c0c320ef11effaf725d1a9353f",
            "0x000000000000000000000000d9a1048f900e57c0c320ef11effaf725d1a9353f"
          ],
          "data": "0x000000000000000000000000000000000000000000000000000000746a528800000000000000000000000000000000000000000000000000000000746a528800",
          "blockHash": "0xe2d08dba14ca3c8a2cc0c58d7276ad875316d42d02c1a7233669d091373e76d5",
          "blockNumber": "0x255fe4c",
          "blockTimestamp": "0x69bf5b78",
          "transactionHash": "0xedfefb2bb6f5bba0e138e04dfc9c265f9454d01fb771da09857ccba31fff8a75",
          "transactionIndex": "0x32",
          "logIndex": "0x2",
          "removed": false
        }
      ],
      "logsBloom": "0x00000000000000000000000000000000000000000000000000000000000000000000000000000000000000000000000000000000000000000000000000000000000000000000000000000000000000000000000000000000000000000000000000000000000000000000000000000000000000000000000000000000000000000000000000000000000000000000000000000000000000000000000000000000000000000000000000000000000000000000000000000000000000000000000000000000000000000000000000000000000000000000000000000000000000000000000000000000000000000000000000000000000000000000000000000000",
      "type": "0x0",
      "transactionHash": "0xedfefb2bb6f5bba0e138e04dfc9c265f9454d01fb771da09857ccba31fff8a75",
      "transactionIndex": "0x32",
      "blockHash": "0xe2d08dba14ca3c8a2cc0c58d7276ad875316d42d02c1a7233669d091373e76d5",
      "blockNumber": "0x255fe4c",
      "gasUsed": "0x1a961",
      "effectiveGasPrice": "0x5b8d80",
      "blobGasUsed": "0x0",
      "from": "0xd9a1048f900e57c0c320ef11effaf725d1a9353f",
      "to": "0x412f577b7e4f8ac392ba9d8876d7a17e4891f6ab",
      "contractAddress": null,
      "l1BaseFeeScalar": "0x44d",
      "l1BlobBaseFee": "0x1",
      "l1BlobBaseFeeScalar": "0xa118b",
      "l1Fee": "0x5e",
      "l1GasPrice": "0x10",
      "l1GasUsed": "0x640"
    },
    {
      "status": "0x1",
      "cumulativeGasUsed": "0xd337d",
      "logs": [
        {
          "address": "0x2c5bedd15f3d40da729a68d852e4f436da14ef79",
          "topics": [
            "0x8c5be1e5ebec7d5bd14f71427d1e84f3dd0314c0f7b2291e5b200ac8c7c3b925",
            "0x000000000000000000000000d9a1048f900e57c0c320ef11effaf725d1a9353f",
            "0x0000000000000000000000002716c3e427b33c78d01e06a5ba19a673eb5d898b"
          ],
          "data": "0xffffffffffffffffffffffffffffffffffffffffffffffffffffffffffffffff",
          "blockHash": "0xf11247ee4955eda4e0d0869808a8dc7ed8411688417bfe90f0cfbe30cc72ccbd",
          "blockNumber": "0x255fe4e",
          "blockTimestamp": "0x69bf5b7c",
          "transactionHash": "0x2223f42d20e9fe82355c67e8c520c53b77c25cc71134e3c279a2b0bb4bf57df6",
          "transactionIndex": "0x5",
          "logIndex": "0x0",
          "removed": false
        }
      ],
      "logsBloom": "0x00000000000000000000000000000000000000000000000000000000000000000000000000000000000000000000000000000000000000000000000000000000000000000000000000000000000000000000000000000000000000000000000000000000000000000000000000000000000000000000000000000000000000000000000000000000000000000000000000000000000000000000000000000000000000000000000000000000000000000000000000000000000000000000000000000000000000000000000000000000000000000000000000000000000000000000000000000000000000000000000000000000000000000000000000000000",
      "type": "0x0",
      "transactionHash": "0x2223f42d20e9fe82355c67e8c520c53b77c25cc71134e3c279a2b0bb4bf57df6",
      "transactionIndex": "0x5",
      "blockHash": "0xf11247ee4955eda4e0d0869808a8dc7ed8411688417bfe90f0cfbe30cc72ccbd",
      "blockNumber": "0x255fe4e",
      "gasUsed": "0xb4cb",
      "effectiveGasPrice": "0x5b8d80",
      "blobGasUsed": "0x0",
      "from": "0xd9a1048f900e57c0c320ef11effaf725d1a9353f",
      "to": "0x2c5bedd15f3d40da729a68d852e4f436da14ef79",
      "contractAddress": null,
      "l1BaseFeeScalar": "0x44d",
      "l1BlobBaseFee": "0x1",
      "l1BlobBaseFeeScalar": "0xa118b",
      "l1Fee": "0x5e",
      "l1GasPrice": "0x10",
      "l1GasUsed": "0x640"
    },
    {
      "status": "0x1",
      "cumulativeGasUsed": "0x9ff66d",
      "logs": [
        {
          "address": "0x2c5bedd15f3d40da729a68d852e4f436da14ef79",
          "topics": [
            "0xddf252ad1be2c89b69c2b068fc378daa952ba7f163c4a11628f55a4df523b3ef",
            "0x000000000000000000000000d9a1048f900e57c0c320ef11effaf725d1a9353f",
            "0x0000000000000000000000002716c3e427b33c78d01e06a5ba19a673eb5d898b"
          ],
          "data": "0x0000000000000000000000000000000000000000000000000000000ba43b7400",
          "blockHash": "0xa93e72c982b0a790f1f5abe1036c532b7b55061acc3b5527c4c06f901c6ad496",
          "blockNumber": "0x255fe4f",
          "blockTimestamp": "0x69bf5b7e",
          "transactionHash": "0xb571edaaa86183bb1d372ed6b613c743fb535b79fa2fb7144f815c393df7bfef",
          "transactionIndex": "0x25",
          "logIndex": "0x0",
          "removed": false
        },
        {
          "address": "0x2716c3e427b33c78d01e06a5ba19a673eb5d898b",
          "topics": [
            "0x42b31a206ab03affbbc09919c0a807830aad05a431d5efc7fd45b19931f7cd01",
            "0x000000000000000000000000d9a1048f900e57c0c320ef11effaf725d1a9353f"
          ],
          "data": "0x0000000000000000000000000000000000000000000000000000000ba43b7400",
          "blockHash": "0xa93e72c982b0a790f1f5abe1036c532b7b55061acc3b5527c4c06f901c6ad496",
          "blockNumber": "0x255fe4f",
          "blockTimestamp": "0x69bf5b7e",
          "transactionHash": "0xb571edaaa86183bb1d372ed6b613c743fb535b79fa2fb7144f815c393df7bfef",
          "transactionIndex": "0x25",
          "logIndex": "0x1",
          "removed": false
        }
      ],
      "logsBloom": "0x00000000000000000000000000000000000000000000000000000000000000000000000000000000000000000000000000000000000000000000000000000000000000000000000000000000000000000000000000000000000000000000000000000000000000000000000000000000000000000000000000000000000000000000000000000000000000000000000000000000000000000000000000000000000000000000000000000000000000000000000000000000000000000000000000000000000000000000000000000000000000000000000000000000000000000000000000000000000000000000000000000000000000000000000000000000",
      "type": "0x0",
      "transactionHash": "0xb571edaaa86183bb1d372ed6b613c743fb535b79fa2fb7144f815c393df7bfef",
      "transactionIndex": "0x25",
      "blockHash": "0xa93e72c982b0a790f1f5abe1036c532b7b55061acc3b5527c4c06f901c6ad496",
      "blockNumber": "0x255fe4f",
      "gasUsed": "0xe1d0",
      "effectiveGasPrice": "0x5b8d80",
      "blobGasUsed": "0x0",
      "from": "0xd9a1048f900e57c0c320ef11effaf725d1a9353f",
      "to": "0x2716c3e427b33c78d01e06a5ba19a673eb5d898b",
      "contractAddress": null,
      "l1BaseFeeScalar": "0x44d",
      "l1BlobBaseFee": "0x1",
      "l1BlobBaseFeeScalar": "0xa118b",
      "l1Fee": "0x5e",
      "l1GasPrice": "0x10",
      "l1GasUsed": "0x640"
    },
    {
      "status": "0x1",
      "cumulativeGasUsed": "0x1bf620",
      "logs": [
        {
          "address": "0x83388045cab4cadc82acfa99a63b17e6d4e5cc87",
          "topics": [
            "0xddf252ad1be2c89b69c2b068fc378daa952ba7f163c4a11628f55a4df523b3ef",
            "0x0000000000000000000000000000000000000000000000000000000000000000",
            "0x000000000000000000000000d9a1048f900e57c0c320ef11effaf725d1a9353f"
          ],
          "data": "0x0000000000000000000000000000000000000000000000056bc75e2d63100000",
          "blockHash": "0x318f224e78612d70581158b67cae9d10d53264b6e55eb9880751bb872afd084c",
          "blockNumber": "0x255fe51",
          "blockTimestamp": "0x69bf5b82",
          "transactionHash": "0x32e0ed272e7d1c0d4cce5202ae91f152de0cfe82859808c3916b464f18eb5865",
          "transactionIndex": "0xf",
          "logIndex": "0x0",
          "removed": false
        }
      ],
      "logsBloom": "0x00000000000000000000000000000000000000000000000000000000000000000000000000000000000000000000000000000000000000000000000000000000000000000000000000000000000000000000000000000000000000000000000000000000000000000000000000000000000000000000000000000000000000000000000000000000000000000000000000000000000000000000000000000000000000000000000000000000000000000000000000000000000000000000000000000000000000000000000000000000000000000000000000000000000000000000000000000000000000000000000000000000000000000000000000000000",
      "type": "0x0",
      "transactionHash": "0x32e0ed272e7d1c0d4cce5202ae91f152de0cfe82859808c3916b464f18eb5865",
      "transactionIndex": "0xf",
      "blockHash": "0x318f224e78612d70581158b67cae9d10d53264b6e55eb9880751bb872afd084c",
      "blockNumber": "0x255fe51",
      "gasUsed": "0x10a24",
      "effectiveGasPrice": "0x5b8d80",
      "blobGasUsed": "0x0",
      "from": "0xd9a1048f900e57c0c320ef11effaf725d1a9353f",
      "to": "0x83388045cab4cadc82acfa99a63b17e6d4e5cc87",
      "contractAddress": null,
      "l1BaseFeeScalar": "0x44d",
      "l1BlobBaseFee": "0x1",
      "l1BlobBaseFeeScalar": "0xa118b",
      "l1Fee": "0x5e",
      "l1GasPrice": "0x10",
      "l1GasUsed": "0x640"
    },
    {
      "status": "0x1",
      "cumulativeGasUsed": "0x1c3c80",
      "logs": [
        {
          "address": "0xb4a47f5d656c177be6cf4839551217f44cbb2cb5",
          "topics": [
            "0xddf252ad1be2c89b69c2b068fc378daa952ba7f163c4a11628f55a4df523b3ef",
            "0x0000000000000000000000000000000000000000000000000000000000000000",
            "0x000000000000000000000000d9a1048f900e57c0c320ef11effaf725d1a9353f"
          ],
          "data": "0x000000000000000000000000000000000000000000000000000000000bebc200",
          "blockHash": "0x273eddf329ca1ce2b54e04b5d43f944b4d5801cc161a049f0a1ecf41c116a426",
          "blockNumber": "0x255fe53",
          "blockTimestamp": "0x69bf5b86",
          "transactionHash": "0x9ba93e0fdc6144b658980a224fed538af8cb385b4a784dc7b4817059062964e4",
          "transactionIndex": "0xb",
          "logIndex": "0x0",
          "removed": false
        }
      ],
      "logsBloom": "0x00000000000000000000000000000000000000000000000000000000000000000000000000000000000000000000000000000000000000000000000000000000000000000000000000000000000000000000000000000000000000000000000000000000000000000000000000000000000000000000000000000000000000000000000000000000000000000000000000000000000000000000000000000000000000000000000000000000000000000000000000000000000000000000000000000000000000000000000000000000000000000000000000000000000000000000000000000000000000000000000000000000000000000000000000000000",
      "type": "0x0",
      "transactionHash": "0x9ba93e0fdc6144b658980a224fed538af8cb385b4a784dc7b4817059062964e4",
      "transactionIndex": "0xb",
      "blockHash": "0x273eddf329ca1ce2b54e04b5d43f944b4d5801cc161a049f0a1ecf41c116a426",
      "blockNumber": "0x255fe53",
      "gasUsed": "0x109f4",
      "effectiveGasPrice": "0x5b8d80",
      "blobGasUsed": "0x0",
      "from": "0xd9a1048f900e57c0c320ef11effaf725d1a9353f",
      "to": "0xb4a47f5d656c177be6cf4839551217f44cbb2cb5",
      "contractAddress": null,
      "l1BaseFeeScalar": "0x44d",
      "l1BlobBaseFee": "0x1",
      "l1BlobBaseFeeScalar": "0xa118b",
      "l1Fee": "0x5e",
      "l1GasPrice": "0x10",
      "l1GasUsed": "0x640"
    },
    {
      "status": "0x1",
      "cumulativeGasUsed": "0x6db4ad",
      "logs": [
        {
          "address": "0xcc86944f5e7385ca6df8eec5d40957840cfdfbb2",
          "topics": [
            "0xddf252ad1be2c89b69c2b068fc378daa952ba7f163c4a11628f55a4df523b3ef",
            "0x0000000000000000000000000000000000000000000000000000000000000000",
            "0x000000000000000000000000d9a1048f900e57c0c320ef11effaf725d1a9353f"
          ],
          "data": "0x00000000000000000000000000000000000000000000021e19e0c9bab2400000",
          "blockHash": "0x3a0bc2ff972a07fa2d1dd82eb438ed094ece4cb069baaa74b65b51a13ac6e06c",
          "blockNumber": "0x255fe55",
          "blockTimestamp": "0x69bf5b8a",
          "transactionHash": "0xaa77aca58a747dbb0b09a98ea2f7fae86b416a902c3b74f5f5531ff340d8dcc5",
          "transactionIndex": "0x18",
          "logIndex": "0x0",
          "removed": false
        }
      ],
      "logsBloom": "0x00000000000000000000000000000000000000000000000000000000000000000000000000000000000000000000000000000000000000000000000000000000000000000000000000000000000000000000000000000000000000000000000000000000000000000000000000000000000000000000000000000000000000000000000000000000000000000000000000000000000000000000000000000000000000000000000000000000000000000000000000000000000000000000000000000000000000000000000000000000000000000000000000000000000000000000000000000000000000000000000000000000000000000000000000000000",
      "type": "0x0",
      "transactionHash": "0xaa77aca58a747dbb0b09a98ea2f7fae86b416a902c3b74f5f5531ff340d8dcc5",
      "transactionIndex": "0x18",
      "blockHash": "0x3a0bc2ff972a07fa2d1dd82eb438ed094ece4cb069baaa74b65b51a13ac6e06c",
      "blockNumber": "0x255fe55",
      "gasUsed": "0x10a30",
      "effectiveGasPrice": "0x5b8d80",
      "blobGasUsed": "0x0",
      "from": "0xd9a1048f900e57c0c320ef11effaf725d1a9353f",
      "to": "0xcc86944f5e7385ca6df8eec5d40957840cfdfbb2",
      "contractAddress": null,
      "l1BaseFeeScalar": "0x44d",
      "l1BlobBaseFee": "0x1",
      "l1BlobBaseFeeScalar": "0xa118b",
      "l1Fee": "0x5e",
      "l1GasPrice": "0x10",
      "l1GasUsed": "0x640"
    }
  ],
  "libraries": [],
  "pending": [],
  "returns": {},
  "timestamp": 1774180955688,
  "chain": 84532,
  "commit": null
}